:100000000C9429030C9446030C9446030C94011F92
:100010000C9446030C9446030C9446030C9446033C
:100020000C9446030C9446030C9427240C94FB2454
:100030000C947E1D0C9446030C9446030C944603CA
:100040000C9446030C9446030C9446030C9446030C
:100050000C9446030C94211E0C9446030C94460306
:100060000C9446030C9446030C9446030C944603EC
:100070000C9446030C9446030C9446030C944603DC
:100080000C9446030C9446030C9446030C944603CC
:100090000C9446030C9446030C9446030C944603BC
:1000A0000C9446030C9446030C944603344836469D
:1000B000370013471C0004001243084118440C0089
:1000C000332814210D240E281B45294B2C22000017
:1000D0000000000009000A47060015460F48070007
:1000E0000B45174111431600054510381A341931D4
:1000F0001D382C322A42000000000000E000E10020
:10010000DA00DF00DE00E300CF00CE00CD00D0003B
:10011000D200DC00D900DB0028000052D100000032
:1001200000000000DE00DF00DA00E500E400CF00A0
:10013000CE00CD00D000E7002800DC00D900DB00B5
:10014000D200D10000520000000000002F002F025A
:1001500026022E0235001E001F0020002100220072
:1001600031005021512452284F000000E1000000CE
:10017000000000002E002D00270230023000230076
:1001800024002500260027005000513852344F31FA
:100190003800E50000000000000000000000000042
:1001A0003502330029000000000033022B002D0629
:1001B000000000003500350833002B08E700000080
:1001C00000000000290033003502000000002D1659
:1001D0002B0033020000000033003518350000000A
:1001E0000000E7002B180000000000002108200894
:1001F0001F081E08220839002B000152000044008D
:100200003A003B003C003D003E000000280000009A
:100210000000000022181E181F1820182118450081
:10022000000001522B0039003F0040004100420015
:1002300043002C0F000000000000000021082008EF
:100240001F081E08220839002B000152000044003C
:100250003A003B003C003D003E0000002C0F000037
:100260000000000022181E181F1820182118450031
:10027000000001522B0039003F00400041004200C5
:100280004300280000000000000000000000000003
:10029000BE00BD00B00C00000000AA00A9000000D4
:1002A000000000000000000000000000000000004E
:1002B00000000000B01CBE00BD00000000000000F7
:1002C000AA00A900000000000000000000000000DB
:1002D0000000000000000000000000000F0F150FDC
:1002E000060F0A0F090F160F110F170F0B0F070F2D
:1002F0001D0F190F1A0F100F050F2A0F150A0000F6
:1003000000000000090F0A0F060F150F0F0F070F4F
:100310000B0F170F110F160F050F100F1A0F190FD4
:100320001D0F151A2A0F0000000000000000000039
:1003300000000000000000000000000000000000BD
:10034000B00D0000000000000000000000000000F0
:10035000000000000000000000000000000000009D
:10036000000000000000000000000000000000008D
:10037000B00D00000000000000000000200220027C
:100380002002204A20021600170013000B0025024D
:1003900016000E001A0015002502040012000000CD
:1003A000000000002002204A200220022002090052
:1003B00013000F0017000700150005000A001600C3
:1003C0001D000800180000000000000000000000F0
:1003D00000000052000000000000000000000000CB
:1003E000000000000000000000000000000000000D
:1003F00000000000000000520000000000000000AB
:1004000000000000000000000000000000000000EC
:100410000000000000000000000000002F002F027C
:1004200026022E0235001E021F0220022102220295
:1004300031025021512452284F000000E1000000F9
:10044000000000002E002D002702300230002302A1
:1004500024022502260227025000513852344F311F
:100460003802E5000000000000000000000000006D
:10047000000000002A2B28000000000000000000FF
:100480000000000000000029000000002C1E3420A5
:10049000212224342627252E362D3738271E1F20CB
:1004A0002122232425263333362E37381F04050610
:1004B0000708090A0B0C0D0E0F1011121314151654
:1004C0001718191A1B1C1D2F3130232D3504050652
:1004D0000708090A0B0C0D0E0F1011121314151634
:1004E0001718191A1B1C1D2F3130354C0000000045
:1004F00000000000000000000000000000000000FC
:1005000000000000000000000000000000000000EB
:100510007E0F00D4FFFFFFC7000000781A034600DB
:10052000650072007200690073002000730077009C
:1005300065006500700000000803440050004200A0
:1005400000000403090409023B00020100A0FA09AB
:1005500004000001030101000921110100012244EE
:1005600000070581030800010904010001030000E0
:1005700000092111010001227B00070582032000F0
:10058000011201000200000008ABC239390100016C
:1005900002000105010902A10185020901A100056E
:1005A0000919012908150025019508750181020521
:1005B00001093009311581257F95027508810609E9
:1005C000381581257F950175088106050C0A3802CA
:1005D0001581257F950175088106C0C00501098038
:1005E000A101850319012AB700150126B70095015D
:1005F00075108100C0050C0901A101850419012AAB
:10060000A002150126A002950175108100C0050108
:100610000906A101050719E029E71500250195083C
:10062000750181029501750881010507190029FFEF
:10063000150026FF00950675088100050819012997
:100640000515002501950575019102950175039128
:1006500001C011241FBECFEFDAE0DEBFCDBF11E035
:10066000A0E0B1E0E4E9FFE402C005900D92AA3CED
:10067000B107D9F722E0AAECB1E001C01D92A53C78
:10068000B207E1F70E94C0150C9481270C9400007A
:100690008C30B8F46830A8F4453098F450E095E018
:1006A000699F400D511D1124FA0198E2899FE00DC8
:1006B000F11D1124EE0FFF1FE455FF4F859194911A
:1006C000089581E090E008950E94480308959C01F8
:1006D0003A9521153F4150F5FC01EE27F170BC0120
:1006E00066277270AC01442754709C012227387031
:1006F00094FF0EC080E1EF2B09F480E0672B09F036
:100700008062452B09F08064232B89F0806808956E
:1007100081E0EF2B09F480E0672B09F08260452B24
:1007200009F08460232B19F08860089580E0089513
:10073000CF93DF93EB010E946703FE010995DF91E0
:10074000CF910895CF93DF93EC01805E91090897D4
:1007500020F06CE378E0209711F46CEF75E0CE01A7
:100760000E9498038C2F0E945F05DF91CF9108951E
:10077000CF93DF93EC010E94A805CE01805E910922
:10078000089720F063E478E0209711F463E076E0C6
:10079000CE010E949803DF91CF9108950F931F938C
:1007A000CF93DF938C01EB010E94A203209741F4C9
:1007B000C8010E94B803DF91CF911F910F91089556
:1007C0008FE99FE00197F1F700C000002197EECF7D
:1007D00070E060E08933910511F460E570E00E94FB
:1007E000CE03089581E008950E94F203089581E008
:1007F00008950E94F20308950E94F9030895089550
:100800000E94FF030895A6E0B0E0E9E0F4E00C9454
:10081000DD2649835A839E833091D10189819A8153
:1008200031111AC03E81332399F0222389F00E94AE
:10083000AF09182F682F89819A810E948B096981DD
:100840007A81812F0E9482102696E3E00C94F9268B
:100850000E949D09182FF3CF0E94AF0969817A8108
:10086000F1CFFC01262F4081518162817381848107
:1008700095810E9403040895CF93DF93EC0161E01A
:100880000E943104BE010E94F403DF91CF910895CC
:10089000CF93DF93EC0160E00E943104BE010E941F
:1008A0000004DF91CF91089581E008950E945404DF
:1008B0000895CF93C82F0E9460088C2F0E94560481
:1008C0002FEF84E39CE0215080409040E1F700C08E
:1008D0000000CF91089581E00E9459040E94451EB6
:1008E000089580E00E9459040E94561E08950F93B7
:1008F0001F93CF93DF938C0161E00E943104EC01E0
:10090000B8010E94FC03811106C080E0DF91CF9105
:100910001F910F910895B801CE010E94E015882320
:10092000A1F3B801CE010E94DE1B882371F3B80148
:10093000CE010E94A017882341F3B801CE010E9486
:100940007617882311F3F8018581882361F0C3307D
:10095000FCE7DF07E9F058F4C115ECE7DE07A9F082
:10096000C130DC47B9F0C8010E94F703CFCFCB35C7
:100970008CE7D807A9F0CC35ECE7DE0771F0CA3573
:10098000DC4789F70E94C90DEECF0E946B04BDCFF2
:100990000E94D10D0E947104B8CF0E94BF0DE3CF19
:1009A0000E94CD0DE0CF0E945B1D0E94FA040895C5
:1009B0000E94FE040E94601D0895089581E008953C
:1009C0000895CF93DF93D82F0E94DE04C82F882389
:1009D00019F08D2F0E94E0048C2FDF91CF910895A4
:1009E0000895CF93C82F0E94DD048C2F0E94E1044C
:1009F000CF91089580E00E94F10408950E94271C81
:100A00000E94F1040895CF930E94271CC82F809163
:100A1000CC018C1779F0C093CC010E94EA1D609341
:100A2000CD017093CE018093CF019093D0018C2F94
:100A30000E94F104CF910895ADE0B0E0E2E2F5E06C
:100A40000C94DE26488759876A877B878C879D8729
:100A500091110E94FF0C1F8286E0FE013896DE0194
:100A6000119601900D928A95E1F78D8181110DC04B
:100A700029813A814B815C816D817E818F810E94C9
:100A8000460C2D96E2E00C94FA26CE0101960E94C7
:100A90003C048111EDCFF5CFFC012481213021F4FC
:100AA000808191810E94E1090895662329F00E94C6
:100AB00001190E94E61908950E946D19FACFCF938B
:100AC000C82F882399F08CEF8C0F813A88F48C2FF3
:100AD0000E94B61C882329F08C2F0E94F91C0E94CA
:100AE0006E0D8C2F0E94F11C0E946E0DCF91089507
:100AF00080E28C0F883048F4C77081E001C0880F15
:100B0000CA95EAF70E94DF0CEFCFEBE5EC0FE3307C
:100B100040F4F0E0E457FE4F808190E00E94571CC3
:100B2000E5CFE8E5EC0FEB3150F4F0E0EE0FFF1FFE
:100B3000EA5AFE4F808191810E947C1CD7CF83E3CB
:100B40008C0F833198F661E08C2F0E945505CECF33
:100B5000882381F19CEF980F913A28F40E94F91CA8
:100B60000E946E0D089590E2980F983050F48770AF
:100B700091E001C0990F8A95EAF7892F0E94E50C50
:100B8000EFCF9BE5980F933028F490E080E00E942F
:100B9000571C089598E5980F9B3128F490E080E069
:100BA0000E947C1C089593E3980F933118F460E041
:100BB0000E94550508951F93CF93DF93182FEB01E3
:100BC0000E945F05209739F4812F0E94A805DF91CC
:100BD000CF911F9108958FE99FE00197F1F700C031
:100BE00000002197EFCF70E060E0893311F460E5F9
:100BF00070E00E94DB050895882321F00E94DF0C3D
:100C00000E946E0D0895882321F00E94E50C0E9439
:100C10006E0D0895B0E0A0E0E0E1F6E00C94D72678
:100C20006C01D62FC72FFC011581068102950F702C
:100C30000E94D50CE82E8823F9F0E12E1123E1F073
:100C40008C2F807F803461F080E28D0F883008F136
:100C50008C2F807E803221F4D230D8F00023C9F06E
:100C600080919E0282FF15C082E00E94930D0E9437
:100C7000D50C91E0E82EE926BC2EB2949FE0B92273
:100C8000FBE0FB15B8F1EB2DF0E0ED57F84D0C94BF
:100C9000C826E12CF1CF0C2F0F70C07F11F0029508
:100CA000007F112399F0002359F080E28D0F8830E6
:100CB00010F0D11107C0802F0E94DF0C0E946E0D32
:100CC0008D2F5AC0802F0E94F20CF8CF8D2F0E94DA
:100CD000A805002379F080E28D0F883010F0D11143
:100CE00004C0802F0E94E50C03C0802F0E94F80CE6
:100CF0000E946E0DEB2DE850FF0B349720F40E94FC
:100D0000271C0E94F104EE2089F00E94D10C80FD86
:100D10000DC0F60115820E94CB0C0E94E908C601A5
:100D20000E9419080E94CB0C0E94F908CDB7DEB7CB
:100D3000E9E00C94F3262C2F2F70F22EC07FC032E6
:100D400019F0F29480EFF822DD2341F0D130D1F197
:100D5000112309F444C00023F1F0B2CF80919E0228
:100D600082FD15C0112359F0FF2029F08F2D0E941C
:100D7000DF0C0E946E0D80E00E945F05BBCF80E01B
:100D80000E94A805FF2009F4B5CF8F2DABCF11230A
:100D900069F0011104C08F2D0E94FC05ABCF01301A
:100DA00009F0A8CF8F2D0E94160DA4CF0111A2CF5C
:100DB0008F2D0E9403068F2D0E94220D8F2D0E94E1
:100DC000060D98CF112321F0063008F093CFE3CF22
:100DD000053008F08FCF8F2D0E9403068BCF0023A4
:100DE000D1F3D93349F43FEF87EE93E0315080409F
:100DF0009040E1F700C000008D2F0E94A8057ACF37
:100E00008C2F86958695837069F0813009F072CFBA
:100E10008D2F9C2F9370111102C080E090E00E94F2
:100E20007C1C68CF8D2F9C2F9370111102C080E025
:100E300090E00E94571C5ECF612F8D2F0E945505B8
:100E400059CF8C2F8370A1F5111154CF4D2F42959E
:100E500046954770440F440F2D2F2F7030E0042E1D
:100E600002C0220F331F0A94E2F790E080E0D4FF23
:100E700009C08FE090E002C0880F991F4A95E2F701
:100E800080959095C695C695C370822B932BC230E2
:100E900049F058F4C13019F00E94B9082BCF0E94D4
:100EA000B00828CF0E94C20825CF0E94AD0822CFEB
:100EB0008695112311F08C2F8170882309F41ACFA5
:100EC0004D2F429546954770440F440F2D2F2F709C
:100ED00030E0042E02C0220F331F0A94E2F790E0A4
:100EE00080E0D4FF09C08FE090E002C0880F991F16
:100EF0004A95E2F780959095C695C695C370822B6A
:100F0000932BC23049F058F4C13019F00E942409E3
:100F1000F1CE0E941B09EECE0E942D09EBCE0E945D
:100F2000D108E8CECF70112329F08C2F0E94E90858
:100F30008D2F32CF8D2F0E9403068C2F0E94F9082F
:100F4000D9CED23F41F160F4D03FB9F0D13F81F02A
:100F5000112309F446C00111B3CE8C2F8F711FC02D
:100F6000D33F01F1D43FA1F780919E0282FD24C0BE
:100F70008C2F8F71112311F312C0112341F0053012
:100F800008F0B8CE8C2F8F710E940B09B3CE0630BB
:100F900008F0B0CEF7CF8C2F8F711111CFCF0E94F8
:100FA000E908A8CE112329F08C2F8F710E94DD084B
:100FB000A1CE0E94D8089ECE112349F0CF718C2F6C
:100FC0000E94E90863E08C2F0E94750D93CE81E0AA
:100FD0000E94930D023008F48DCE82E00E94930DA2
:100FE00089CE002359F0D93309F006CFEFEFF7EEA1
:100FF00023E0E150F0402040E1F7FCCE8C2F8F71D0
:101000009DCF0F931F93CF93DF93EC01688179817C
:101010008D810E94EC098C010E9436090E94AC0867
:10102000B801CE010E940A06DF91CF911F910F9166
:101030000895CF93DF93EC018C81882399F0CE0142
:101040000E947704811111C00E94D50C882351F0B1
:101050008D81882339F080919E0282FF03C082E057
:101060000E94930DDF91CF910895CE010E94010857
:10107000CE010E944804F6CF882321F00E94F20C92
:101080000E946E0D0895882321F00E94F80C0E94A2
:101090006E0D089590E080E00E94571C90E080E083
:1010A0000E947C1C0E94FF0C0E946E0D0E94021A7E
:1010B0000E94E61908950E94011D0E944A080895A1
:1010C0000E94EF0C0E945B08089592959F709630E5
:1010D00091F058F4925F9F70923058F4803F19F06D
:1010E00030F4883E30F481E008959A5FF4CF843F75
:1010F000D1F380E00895883EB0F3813FD1F7F3CF7C
:10110000FC012481222339F0808191810E94E10930
:101110000E946508089580E00895A6E0B0E0E3E944
:10112000F8E00C94DE262696E2E00C94FA26A7E07E
:10113000B0E0EDE9F8E00C94DE262796E2E00C94AE
:10114000FA2608950E94A10808950E94A20890938B
:10115000E9018093E801089508950E94A508089583
:101160002091E8013091E901822B932B0E94A50880
:1011700008952091E8013091E901822393230E9490
:10118000A50808952091E8013091E901822793276D
:101190000E94A50808950E94A10808950E94CB0806
:1011A00008950E94CE089093E7018093E601089588
:1011B00090E080E00E94D108089521E030E0A9018C
:1011C00002C0440F551F8A95E2F7CA010E94D10858
:1011D000089521E030E002C0220F331F8A95E2F724
:1011E0008091E6019091E701822B932B0E94D10818
:1011F000089521E030E002C0220F331F8A95E2F704
:10120000209530958091E6019091E7018223932308
:101210000E94D108089521E030E002C0220F331F60
:101220008A95E2F78091E6019091E7018227932762
:101230000E94D10808952091E6013091E701822BA8
:10124000932B0E94D10808952091E6013091E70187
:10125000822393230E94D10808952091E6013091C2
:10126000E701822793270E94D10808950895262F29
:10127000277091E001C0990F2A95EAF723E076954F
:1012800067952A95E1F7660F771F660F771FFA01BA
:10129000E60FF71F50E040E0682F70E08191DF011A
:1012A00011979B01042E02C0369527950A94E2F708
:1012B000217021952827292328272C934F5F5F4FE2
:1012C0004430510559F70895A82FA77023E096954B
:1012D00087952A95E1F7880F991F880F991FFB01C1
:1012E000E80FF91F50E040E080E0219130E00A2E45
:1012F00002C0369527950A94E2F721703327042E11
:1013000001C0220F0A94EAF7822B4F5F5F4F4430EF
:10131000510559F70895262F983070F4853060F400
:10132000682F70E085E0989F600D711D112442EDDB
:1013300051E0822F0E9437090895292F983068F4D0
:10134000853058F490E062ED71E035E0239F800D28
:10135000911D11240E946409089580E00895B0E071
:10136000A0E0E5EBF9E00C94D7267C010091E601C2
:101370001091E7018091E8019091E901082B192B68
:10138000CFE0D0E0CC24C394D12CBC2EC6010C2ECF
:1013900002C0880F991F0A94E2F780239123892BBA
:1013A00049F4219790F7B12C8B2DCDB7DEB7E9E04A
:1013B0000C94F326B7018C2F0E948E10019789F3AD
:1013C000F3CFCF93DF93EC010E94AF09BE010E94DF
:1013D0008E10DF91CF9108951F93CF93DF93EB0190
:1013E0009091D101992339F0CB010E94E109DF915D
:1013F000CF911F910895882369F0CB010E94AF0916
:10140000182F682FCE010E948B09BE01812F0E94E8
:101410008E10EDCFCB010E949D09182FF6CF1F93A0
:10142000CF93DF93C091EA0117E08091EB018C1319
:1014300004C0DF91CF911F910895D0E01C9FF0016F
:101440001D9FF00D1124E451FE4F20813181428116
:1014500053816481758186810E9497082196C770A7
:10146000E4CF209124023091250240912602509130
:101470002702609128027091290280912A020E941D
:1014800097080895CF93DF9380912A02807F09F017
:101490004DC080912902882309F448C0E091EA01F7
:1014A0005091EB01C0912502D09124026091260257
:1014B0007091270247E05E17C9F18E2F90E0E49FFC
:1014C000F0011124E451FE4F2481222391F1489F21
:1014D000F001499FF00D1124DF01A451BE4F119678
:1014E0002C9111972C1325C02C912D1322C01596E9
:1014F0002C91159721111DC012962D913C91261B00
:10150000370B283C3105A8F480912A028F70806146
:1015100080932A02EE50FE4F80818F70806180831D
:1015200084E292E00E9419080E940F0ADF91CF9195
:101530000895FC013196E770BECF482F2091EA0153
:101540009091EB0157E0291302C080E0089530E04C
:10155000529FF001539FF00D1124E451FE4F818101
:10156000681306C08081481303C085818111EECFC6
:101570002F5F3F4F2770E7CFA4E1B0E0E2ECFAE045
:101580000C94D4268C0186E0F801DE011F960190B0
:101590000D928A95E1F7F8018481E58094E2A92E05
:1015A00092E0B92E9091280291111FC08823D1F0AA
:1015B000EE20A9F0C8010E948008F82E882379F057
:1015C00087E0F801D50101900D928A95E1F7C501F8
:1015D0000E944C050E94420A0E94310A5FC0C80165
:1015E0000E941908FF24F39459C0C080D1808280E2
:1015F0009380F09029022091260230912702A401C5
:10160000421B530BFF2009F4F9C0483C510508F078
:10161000A7C0882309F442C09091250280912A0234
:10162000282F207F09F05CC09D1116C090912402E4
:10163000C91212C0E1104EC08F70806180932A02DF
:101640000E94310A84E292E00E94190880912A02E5
:10165000F8018683F12C22C0E1103CC06D2D8C2D49
:101660000E949D0A6D2D8C2D0E949D0AE82E8111ED
:10167000F1CFCF86D88A8F8598890E94E109292FDA
:1016800022952F70243078F49F702230A8F099238F
:10169000B9F0F8019681907F99F4FE2C8F2D649615
:1016A000ECE00C94F0262A5F2F70223068F0C8011D
:1016B0000E941908EF2CF1CF992311F0882369F3C8
:1016C000805E883050F3F3CF803F38F3815F833002
:1016D00070F7E3CF80912A02816080932A02BACF0B
:1016E0009D1113C090912402C9120FC0E1100DC0CA
:1016F0008683C8010E94190887E0F801A4E2B2E0DD
:1017000001900D928A95E1F767CFC8010E94800889
:10171000882309F464CFEE2009F461CF80912A0276
:10172000803288F020912402309125023987288761
:101730009B868A86909128029C871D868E87CE0183
:1017400008960E94190887E0F801A4E2B2E001902F
:101750000D928A95E1F70E94420A0E94310A42CF17
:1017600090912A02292F207FA1F4682D9A8A898AD4
:10177000A6017A899E2D0E948D0884E292E00E9443
:10178000190887E0F50111928A95E9F70E94310A5C
:1017900061CF882309F482CF809125028D1110C07A
:1017A00080912402C8120CC0E1100AC09683C801BF
:1017B0000E94190887E0F50111928A95E9F76ECF2A
:1017C000C8010E948008882309F409CFEE2009F49B
:1017D00006CF80912A02803208F4B5CF20912402EE
:1017E000309125023A8329839C828B829091280232
:1017F0009D831E828F83CE010196A3CF483C510565
:10180000B8F5882309F4EECEFE2CEE2009F4E7CEDD
:10181000809125028D111EC080912402C8121AC029
:1018200080912A0280FD0DC0982F907F51F0868311
:10183000903F09F45ECF982F907F905F8F70892B37
:1018400057CF87E0F801A4E2B2E001900D928A95AB
:10185000E1F724CFC8010E948008811174CF8091E4
:101860002A02816080932A02C8010E94190816CFBB
:10187000682D9A8A898AA6017A899E2D0E948D08F0
:1018800087E0F50111928A95E9F7A6CEAEE0B0E0C7
:10189000ECE4FCE00C94DD26288739874A875B87D7
:1018A0006C877D878E87CE0108960E94BC0A8823AC
:1018B000B1F06C85662341F0288539854A855B85C2
:1018C0007D858E850E94970817E08091EA019091AE
:1018D000EB0189133DC02E96E3E00C94F92687E0D6
:1018E000FE013896DE01119601900D928A95E1F77E
:1018F0008C85882349F32091EB0130E0C9010196E2
:10190000877099274091EA014817190699F097E0E6
:10191000929FD001939FB00D1124A451BE4FFE01A0
:10192000319601900D929A95E1F78093EB010E9418
:101930000F0ACACF0E9460081092EB011092EA01D0
:1019400087E0E4E2F2E0DF011D928A95E9F7BCCF7F
:10195000819FC001112484519E4F0E94BC0A88239C
:1019600009F4B9CFE091EA011E9FF0011124E4517E
:10197000FE4F20813181428153816481758186814E
:101980000E9497088091EA0190E00196877099275C
:101990008093EA019ACF8091330286958695869549
:1019A0000895809133028770089590913302977063
:1019B00081E009F480E0089580913F0208959091BC
:1019C0003F02892B80933F020895809590913F02BA
:1019D000982390933F02089580933F0208951092B8
:1019E0003F02089590913E02892B80933E02089514
:1019F000809590913E02982390933E020895109214
:101A00003E02089508950E94020D089590913402B7
:101A1000292F282331F080958923809334020E9456
:101A2000030D089508950E94120D089590913502B6
:101A3000292F2823281729F0982B909335020E94EC
:101A4000130D089590913502292F282331F08095A8
:101A50008923809335020E94130D089580913502E9
:101A6000882329F01092350280E00E94130D08951A
:101A70000F931F93CF93DF93009100011091010109
:101A8000C0913F0280913E02C82B8091350288238D
:101A900031F0C82B0E94A11C81110E942E0DF8016B
:101AA000C083C0910001D091010148E050E06BE299
:101AB00072E0CE010E941927892B59F088E0FE01BF
:101AC000ABE2B2E001900D928A95E1F7CE010E945F
:101AD0003E1CDF91CF911F910F9108950E94380D08
:101AE000089508950E94710D089590919E0292FFAD
:101AF00011C098E0899F90011124622B60933302FA
:101B00000E94E908809133028695869586950E9409
:101B1000720D08950E94E90808951092330280E042
:101B20000E94720D089590913302809589238093CD
:101B30003302282F277069F4891759F090919E027B
:101B400092FF07C08695869586950E94F9080E94A7
:101B50008D0D089590919E0292FB222720F928175F
:101B600069F080FB92F990939E0280919D02909182
:101B70009E020E94F20D82E00E94930D08958091D2
:101B80009E0282FB882780F991E089270E94AA0D96
:101B9000089581E00E94AA0D089580E00E94AA0D98
:101BA00008956FEF7FEF90E080E00E946B2708952B
:101BB00090E080E00E94372721E0863E9E4F09F0AA
:101BC00020E0822F089582E090E00E942F27089560
:101BD00083E090E00E942F27089584E090E00E9427
:101BE00037270895BC0184E090E00E946B27089598
:101BF000AB01BC018FE090E00E945F270895AB012C
:101C0000BC0183E190E00E945F27089560E070E0EE
:101C1000CB010E94FF0D089560E070E0CB010E94AF
:101C2000F80D0E94060E0895A8E0B0E0EAE1FEE09B
:101C30000C94DE2666EE7EEF90E080E00E946B273B
:101C400060E082E090E00E944D2781E090E0909378
:101C5000E9018093E80161E083E090E00E944D2774
:101C600060E074E184E090E00E946B2760E086E031
:101C700090E00E944D276FEF87E090E00E944D2793
:101C800040E050E0BA0188E090E00E945F2760E009
:101C900084E290E00E944D2760E087E190E00E949E
:101CA0004D2760E08CE090E00E944D2760E08DE0E1
:101CB00090E00E944D2719821A821B821C821D828D
:101CC0001E821F82188648E050E068E170E0CE0175
:101CD00001960E943D2740E050E0BA0180E290E08A
:101CE0000E945F270E940C0E2896E2E00C94FA26D0
:101CF0000E94140E08958EE090E00E942F2791E03C
:101D0000811101C090E0892F0895682F8EE090E046
:101D10000E944D270895A6E0B0E0E1E9FEE00C94B2
:101D2000DC260E94DE1D8C018091400290914102D0
:101D30008017910781F019821A820E94DE1D682F98
:101D400049815A81792F80E090E00E941C05109310
:101D50004102009340022696E4E00C94F8260E948B
:101D6000AA1160934E0270934F0280935002909399
:101D7000510260934A0270934B0280934C029093FD
:101D80004D020895089508950E94C20E0895089581
:101D90000E94C70E089581E0089584EC91E10E94AD
:101DA000CD150E94C30E0E94C40E08950E94C41354
:101DB0000895089508950E94D90E0E94DA0E08959C
:101DC0000E94F0110E94F0040E94301608950E94B3
:101DD000D51D0E9484110E94C7130E94E1120E9427
:101DE000E00E0E945E170E94D9130E94C80E08954B
:101DF000A6E0B0E0EEEFFEE00C94D5260E94CB0EFC
:101E000081110CC00E948B0E0E94C4130E94241AE0
:101E10000E9403052696EBE00C94F1260E943513F0
:101E200082E4A82E82E0B82E750110E0F70101913E
:101E30007F01812F0E9416121F5F183009F441C0E4
:101E40000817A1F38091520281FD0E941C120E948A
:101E5000D60EC82E10E099249394812F0E9416125A
:101E6000082FF50181915F01081729F1F12CEE246B
:101E7000E394D02ED8268D2D8E21A9F0CC2099F078
:101E8000F9821A830E94DE1D9C838B839D8291E0E0
:101E9000802F8E2109F490E049815A816B817C81E9
:101EA0008D810E941C05F394EE0CF5E0FF12E3CF48
:101EB000F501319700831F5F183079F60E94AF0E4D
:101EC000A3CF0813BFCF9ECF1F93CF93DF930E9462
:101ED0009310EC01C11580E5D807F0F5C11580E439
:101EE000D80708F09CC0C03ED10520F5CD3CD105F7
:101EF00008F082C0C83AD10578F4C53AD10508F097
:101F000073C0C130D10519F1209709F1C430D10552
:101F1000F0F4D0E0C0E01BC0C33CD105D0F7C85AF4
:101F2000D0E0CC0FDD1FC157DE4F0990D881C02D06
:101F3000D4640DC0C11580E2D80708F0D1C0C11526
:101F400081E0D80708F05AC0C83ED10510F7CE018D
:101F5000DF91CF911F910895C03682E5D80718F51B
:101F6000C03482E5D80708F06BC0C03282E5D807DC
:101F700008F05FC0C11582E5D80708F497C02C2F80
:101F80002695269580E2289F900111248C2F83703E
:101F9000C1E0D0E002C0CC0FDD1F8A95E2F7C22B72
:101FA000D32BDD68D4CFC03A82E5D80760F4C038BF
:101FB00082E5D80708F459C0CF71D0E0DC2FCC27D8
:101FC000C46FD06AC4CFC03C82E5D80708F462C0B1
:101FD000C03E82E5D80708F09CCFDC2FCC27CC2769
:101FE000DF71C06FD06AB3CFC55AD0E0CB53DE4F9C
:101FF000C881D0E0D064ABCFD065A9CF8D2F0E942F
:102000003511182FCE0199270E949310C12FD0E0CF
:10201000DC2FCC27CC27DF71C82BD92B98CFCE0152
:1020200099270E949310CC27DF70C82BD92BD06A38
:102030008ECFCF71D0E0DC2FCC27C16FD06A87CF95
:102040002C2F26952695277080E2289F9001112439
:102050008C2F8370C1E0D0E002C0CC0FDD1F8A95C9
:10206000E2F7C22BD32BDC6872CF2C2F2695269556
:10207000277080E2289F900111248C2F8370C1E08B
:10208000D0E002C0CC0FDD1F8A95E2F7C22BD32B24
:10209000DA685DCF8C2F8F710E943511C82FD0E088
:1020A000DC2FCC27CC27DF71D06251CF8C2F8F71E2
:1020B0000E94351155E0D695C7955A95E1F7CF7036
:1020C000D0E0DC2FCC27282F30E084FF05C044E08F
:1020D000220F331F4A95E1F7C22BD32BD06937CF9C
:1020E0008D2F8F710E943511182FCE0199270E94D4
:1020F0009310C12FD0E0DC2FCC27CC27DF71C82B69
:10210000D92BD2CF462F783030F4653020F4672FAA
:102110000E946403089590E080E008950E94821078
:102120000E94640F089582389105B9F1B0F48133AB
:10213000910509F47DC048F48932910509F46DC018
:102140008A32910509F47BC008958533910509F41D
:102150005FC08933910509F10895833E9105D9F156
:1021600038F4803E910529F1823E910579F1089578
:10217000863E9105D9F1873E910509F43EC0843E23
:10218000910541F520919E0221FF24C080919D027E
:1021900084FD19C087EE90E0089520919D02237080
:1021A00009F05AC020919E0223FF14C089E290E0FA
:1021B000089520919D0220FD38C030919E0230FF8D
:1021C00009C024FF43C090E080E0089520919D0263
:1021D00022FDF7CF089520919D0222FD3AC0309153
:1021E0009E0230FD39C024FFF5CFEDCF20919D0236
:1021F00023FFF0CF24FDE7CFCDCF20919D0223FD1B
:102200002EC030919E0231FFEECF84EE90E0089513
:1022100020919D0225FFDECFC9CF20919D0225FD93
:1022200021C020919E0223FFD5CF89E390E0D2CF39
:1022300020919D0226FFCECF8AE290E00895209162
:102240009D0226FFC7CF81E390E0089583EE90E0E2
:10225000089582EE90E0089580EE90E0089586EE75
:1022600090E0089585E390E0089590919D0292FF9B
:1022700010C041E0282F2471243009F040E031E003
:10228000282F2871283009F030E0431711F02CE096
:10229000822793FF10C041E0282F2471243109F0D8
:1022A00040E031E0282F2871283109F030E0431751
:1022B00011F02CE0822730919E0230FF10C051E0D7
:1022C000282F2171213009F050E041E0282F28719A
:1022D000283009F040E0541711F029E0822731FF3F
:1022E00010C041E0282F2171213109F040E031E098
:1022F000282F2871283109F030E0431711F029E028
:10230000822794FD877E08951092990210929A0276
:1023100010929B0210929C020895CF92DF92EF924E
:10232000FF926B017C010E94C41381110EC00E94B8
:10233000EA1DC61AD70AE80AF90AC0929902D09291
:102340009A02E0929B02F0929C02FF90EF90DF9045
:10235000CF9008950F931F930E94C413882329F0F0
:102360000E94EA1D1F910F9108950E94EA1D00919D
:10237000990210919A0220919B0230919C02600F69
:10238000711F821F931FEECF80E008950E94D10D30
:102390000895CF930E9435132FEF86E791E02150E7
:1023A00080409040E1F700C000000E9435130E9479
:1023B000C113C4E08111C0E08C2F0E94161290E07E
:1023C00002C095958795CA95E2F780FF04C00E94E8
:1023D000C6110E94451ECF9108950E94C91108950B
:1023E0000E94D80D811102C00E94780E0E94E30D58
:1023F000809352020E94ED0D90939E0280939D0265
:102400000E94ED110E94E80D90E00E94AD088091BD
:10241000E6019091E7010E94CE08089508950E9478
:102420000E12089508950E9412120895E82FF0E008
:10243000E855FD4F80810895089508950E941D126A
:102440000895EF92FF921F93CF93DF9300D000D0B7
:10245000CDB7DEB70E94C413182F6091B002882355
:1024600009F447C019821A821B821C82862F90E0D1
:102470009E012F5F3F4F7901B90188559D4F0E9402
:10248000E7138823E9F080919F0290E044E050E058
:10249000B70188559D4F0E94192721E020935302D0
:1024A000892BC9F410E00E941312812F0F900F9016
:1024B0000F900F90DF91CF911F91FF90EF900895B3
:1024C00080915302882371F384E0F70111928A9579
:1024D000E9F710925302E0919F02F0E0E855FD4FBA
:1024E00089819A81AB81BC8180839183A283B383EC
:1024F000DACF70E068557D4F80919F0290E088555B
:102500009D4F0E946E140E941E12CFCF1F93CF9337
:10251000DF9322E031E0C1E0D0E0D90150E040E0BB
:102520008D918F3F91F0E82FE295EF70F0E011A1CF
:102530008F70BE0101C0660F8A95EAF7962F9095BD
:10254000912391A382A1862B82A34F5F5F4F4530D9
:10255000510531F72B5F3F4F81E026313807E9F60F
:10256000DF91CF911F910895CF93DF93AC01A62FF8
:10257000B0E085E0689FF0011124EE5FFE4F70E04F
:1025800081E060E091919F3FD1F0C92FC295CF705B
:10259000D0E028A130E09F7002C0359527959A952C
:1025A000E2F720FD0CC0282F622B7F5F880F75306B
:1025B00049F7A40FB51F6C93DF91CF91089520E0E8
:1025C000F3CFA4E1B0E0E7EEF2E10C94DE268091D7
:1025D0001601811126C084E1E2E4F1E0DE011196EA
:1025E00001900D928A95E1F7FE013196A2E0B1E0EB
:1025F000CE01459620812C93218111962C93119721
:10260000228112962C931297238113962C93139761
:10261000248114962C931497359615968E179F0740
:1026200049F78091160194E0811190E09093B002F7
:1026300084E0891B80939F020E94861288E0E8EA6A
:10264000F2E0DF01982F1D929A95E9F7E0EAF2E0B7
:10265000DF011D928A95E9F784E00E9473130E94BE
:102660000F126496E2E00C94FA26A8E0B0E0EBE3E7
:10267000F3E10C94DB268E010F5F1F4F88E0F80119
:1026800011928A95E9F7F12C6F2DC8010E94B412BE
:10269000F394F4E0FF12F8CF48E050E0B80180EA8C
:1026A00092E00E94192721E0009709F420E0892B8D
:1026B00041F088E0F801A0EAB2E001900D928A951D
:1026C000E1F76091B00270E068557D4F44E080EA28
:1026D00092E00E947413182F0E942112812B2896D9
:1026E000E5E00C94F7260895B0E0A0E0EAE7F3E116
:1026F0000C94D8266C017B01042FC22F222379F081
:1027000081E0809356020E94DE1D909355028093D3
:10271000540280E0CDB7DEB7E8E00C94F426D09107
:102720005602DD23B1F380915402909155020E942C
:10273000F61D059770F310E0A801B601C7010E94CD
:102740001927892B31F0A801B601C7010E9426275D
:10275000CD2F109256028C2FDDCF0E94D80D811103
:1027600002C00E94780E0E947B0E0895CF930E94B3
:10277000A726C82F811102C00E94A2268C2FCF91BC
:10278000089580915A0208958091590208950E94F7
:10279000B613809359020E94AD1380935A020E948F
:1027A000C113809316010E94C41381110E941D144D
:1027B00008950E94C413811102C00E94201408953C
:1027C00081E090915B029A3008F080E008950F93C9
:1027D0001F93CF93DF93EC018B0180915B028A30D2
:1027E000B8F4B801CE010E946B14C82F811122C029
:1027F00080915B028F3FB9F40E94DE1D90935802D6
:10280000809357028C2FDF91CF911F910F910895E4
:1028100080915702909158020E94F61D843F91408A
:1028200000F7C0E0EFCF8F5F80935B028A3020F724
:10283000C1E0E8CF10925B02E5CF0E94BB1E089575
:102840000E94BE1E0895B0E0A0E0E9E2F4E10C941D
:10285000D9267901C82F880FDD0B41155105A9F044
:10286000FE0193E0EE0FFF1F9A95E1F7E95EFE4F40
:1028700081819281845A9D4F208130E04217530715
:1028800008F49A01A9010E942627CE010E94A71FE1
:10289000D82E8823D1F001151105B9F083E0CC0FB3
:1028A000DD1F8A95E1F7FE01E95EFE4F438150E0AE
:1028B0000417150708F4A801C95EDE4F6C817D81FD
:1028C000645A7D4FC7010E9426278D2DCDB7DEB7F4
:1028D000E7E00C94F5260E94651508950E947C158A
:1028E0000895A4E0B0E0E7E7F4E10C94DC26609101
:1028F00071027091720280917302909174020E9431
:10290000051E11E0643671058105910518F10E94DC
:10291000AA116E5F7F4F8F4F9F4F69837A838B839E
:102920009C8310E000E030E020E044E050E0BE0195
:102930006F5F7F4F82E00E942314182F882351F08D
:102940000E94EA1D60937102709372028093730279
:1029500090937402812F2496E4E00C94F826B0E062
:10296000A0E0E5EBF4E10C94D6267C015B016A0162
:102970000E94E01301E010E0882311F00AE010E06B
:10298000C1E0D0E0B501C701F6010995811104C08D
:1029900021960C171D072CF4CDB7DEB7EAE00C9496
:1029A000F226CC9F9001CD9F300D300D112490E088
:1029B00080E045E34A95F1F70000019682179307FE
:1029C000C1F7E0CFA5E0B0E0E8EEF4E10C94D62644
:1029D0005B01E090C801F090C90101E010E09E01A8
:1029E0002B5F3F4F50E040E070E060E080E00E94ED
:1029F0002314182F882309F44BC067018FEFC81ADE
:102A0000D80A60916D0270916E0280916F02909170
:102A100070020E94051E643671058105910580F1E2
:102A200004E010E09E012F5F3F4F50E040E070E077
:102A300060E081E00E942314F82E64E070E0C6019B
:102A40000E945F1711E09D81981310E01F2159F13A
:102A50000E94EA1D60936D0270936E0280936F0274
:102A60009093700289819A81AB81BC8180936902C5
:102A700090936A02A0936B02B0936C0211E013C0B2
:102A800064E070E0C6010E945F179D818913C8CF82
:102A9000F70181819281A381B48189839A83AB8379
:102AA000BC831111DFCF8091690290916A02A091DD
:102AB0006B02B0916C02F50180839183A283B38392
:102AC000812F2596EAE00C94F2260F931F93CF9363
:102AD000DF93EC018B0142EE54E10E94AF14882396
:102AE00031F041E754E1B801CE010E94AF14DF910B
:102AF000CF911F910F9108950F931F93CF93DF9361
:102B0000C091C801D091C901CE01019624E0FB011A
:102B1000DC0101900D922A95E1F764E070E00E94DB
:102B20005F1788836D817E818F8198850091650212
:102B30001091660220916702309168026017710758
:102B40008207930751F06093650270936602809349
:102B50006702909368020E948D11DF91CF911F91BF
:102B60000F9108950E9478210E94E70E0E9485210E
:102B700008950E948A210E94F80E0E94A4210895BF
:102B80000E94771D0E945E210E94CD0E0E94B21508
:102B90000E94B9150E94DB0EFBCF9093CB0180936E
:102BA000CA010895FB012581222341F097FF06C049
:102BB0009F77BC0190E080E00E94161781E00895A5
:102BC0000F931F93CF93DF93EC018B01FB01858162
:102BD000882389F00E94DC0C8272FE01E053FC47DE
:102BE000E830F10540F4E157F84D0C94C8268823ED
:102BF00069F00E944816B801CE010E94D215DF91FB
:102C0000CF911F910F910895882399F30E94471641
:102C1000F2CF80E00E943916EECF81E0FBCF82E058
:102C2000F9CF83E0F7CF84E0F5CF85E0F3CF909143
:102C3000B202923071F48A3050F490E009966AE062
:102C400070E00E94B426875A0E94F30508958650CA
:102C5000FBCF0E946F1B089508950E942C160895C3
:102C60008CE090E00E942F278093B2020E942D16E4
:102C70000895CF93C82F8093B202682F8CE090E024
:102C80000E944D278C2F0E942D16CF9108950895F4
:102C900008950E943B1C8093B1029091B202913042
:102CA00029F481FF03C089E30E94F3050E94DC0C34
:102CB0008093B3020E94EF0C0E94FF0C8091B2023D
:102CC000823021F158F48823C1F08130D1F08FE3B4
:102CD0009CE90197F1F700C000000895843051F19C
:102CE0008530A9F78BE191E00E94E80385E290E04E
:102CF0000E94E80388E290E006C082EE0E945F0531
:102D0000E6CF88E193E00E94E803E1CF8091B10231
:102D100080FD03C083E50E94F30582EE0E945F05FB
:102D20008FE39CE90197F1F700C0000087E50E945E
:102D3000F305CDCF86EE0E94F30588E1F8CF8091B0
:102D4000B202823011F148F4882381F0813091F091
:102D50008091B3020E94EC0C08958430F9F0853024
:102D6000B9F788E290E00E94E803F2CF82EE0E9479
:102D7000A805EECF8CE20E94F3058091B10281FF9D
:102D8000E7CF89E30E94F305E3CF82EE0E94A80516
:102D90008091B10280FDDCCF83E5F4CF88E2F2CFF1
:102DA0008F929F92AF92BF92EF92FF920F931F93D9
:102DB000CF93DF934B015C01D091B2028CE1E82EFE
:102DC000F12C07E010E021E0D501C4010E2C04C075
:102DD000B695A795979587950A94D2F7C82FCF7087
:102DE000222339F0D43051F4CA3040F080E00E9400
:102DF00017168C2F0E94171620E005C0C111F9CFBD
:102E000004301105B4F30150110984E0E81AF10807
:102E10000F3F1007C9F6DF91CF911F910F91FF90DF
:102E2000EF90BF90AF909F908F900895CF92DF92D8
:102E3000EF92FF926B017C01C114D10481E1E8069D
:102E4000F104A0F5C114D10481E0E806F10420F0FA
:102E50008091B202823051F10E944916C114D1040E
:102E600081E0E806F10438F18091B202811123C0BB
:102E700081E0E81AF108C701B6012AE09695879526
:102E8000779567952A95D1F778528F4F9F4F0E947B
:102E9000D01683E0D822EE24FF24C701B601745275
:102EA0008F4F9F4F0E94D0160E949F16FF90EF9069
:102EB000DF90CF900895C701B601F4CF0895FC01CB
:102EC000680F791F8FEF91E3E617F70709F408956C
:102ED0002191822728E030E087FF06C0880F8927EC
:102EE00021503109C9F7F0CF880FFACFCF93DF9384
:102EF000EB0186319C4711F50E94DC0C9D819923E2
:102F000099F08A7A91E009F490E09093750281112A
:102F100009C089E20E94F11C0E946E0D80E0DF91E1
:102F2000CF91089585E3F6CF80917502811104C099
:102F300089E20E94F91CF0CF85E3FBCF81E0EFCF5F
:102F4000CF93DF93EC01FB018581882309F4D2C084
:102F50009E0130572332310508F0B2C00E94ED0DBA
:102F600090939E0280939D02FE01E150F047E23271
:102F7000F10520F4E956F84D0C94C82680919D0285
:102F8000816080939D0293C080919E0288608093AF
:102F90009E028DC080919D028260F3CF80919D0240
:102FA0008460EFCF80919D028860EBCF80919E027C
:102FB0008160EDCF80919E028260E9CF80919D0279
:102FC0008061DFCF80919D028062DBCF80919D0286
:102FD0008064D7CF0E94600880919D028068D1CF25
:102FE00080919D028C60CDCF80919E028360CFCF77
:102FF00080919D028E7FC5CF80919E02877FC7CF33
:1030000080919D028D7FBDCF80919D028B7FB9CF36
:1030100080919D02877FB5CF80919E028E7FB7CF32
:1030200080919E028D7FB3CF80919D028F7EA9CF2C
:1030300080919D028F7DA5CF80919D028F7BA1CF36
:103040000E94600880919D028F779BCF80919D02A6
:10305000837F97CF80919E028C7F99CF80919D0234
:1030600082FB992790F921E0922790FB82F990FB4F
:1030700083F987CF80919E02982F909591708E7FD3
:10308000892B90FB81F983CF90919D02892F8F7BB3
:1030900096FF806476CF0E94600890919D02892FF0
:1030A00097FB87F980586DCF81E00E94850E809153
:1030B0009D0290919E020E94F20D0E94600880E0A5
:1030C000DF91CF91089580E0F0CF90919D02892FFC
:1030D0008F7E94FF806155CF90919D02892F8E7FC6
:1030E00090FF81604ECF90919E02892F877F93FF42
:1030F00088604DCF81E0E4CF282F35EB2303C0015A
:10310000112497FF04C080589109892F0895805891
:103110009F4FFBCF80917C0280FF0DC060913401F6
:1031200070E0660F771F6038710570F561157105E5
:1031300069F1862F089581FF07C06091340184E012
:10314000689FB0011124EFCF6091340182FD0AC065
:1031500080917B028823A9F0209133016091340192
:10316000821710F088E0ECCF869FC001112433E075
:10317000880F991F3A95E1F7622F70E00E94B426FC
:10318000D2CF68E070E0D5CF8FE7089581E0089551
:1031900080917C0280FF0CC06091300170E07595D9
:1031A0006795759567956115710549F1862F0895A5
:1031B00081FF06C06091300170E075956795F3CF8F
:1031C0006091300182FD0BC090917A029923A1F0A9
:1031D00060912F0180913001961738F0682F70E0D0
:1031E0006038710500F38FE70895899FC0011124AD
:1031F00070E00E94B426F4CF61E070E0D7CF81E0A8
:10320000089590917F0220918002922B209182025A
:10321000922B20918102922B31F098E090937B02C7
:1032200091E090937A028D3C31F40E948A18819546
:103230008093800208958E3C19F40E948A18F8CF7A
:103240008F3C31F40E948A18819580937F02089503
:10325000803D19F40E948A18F8CF893D29F40E9414
:10326000C8188093810208958A3D21F40E94C818ED
:103270008195F7CF8B3D31F40E94C81881958093DA
:10328000820208958C3D19F40E94C818F8CF9FE27D
:10329000980F983070F4815D990B21E030E001C007
:1032A000220F8A95EAF780917E02822B80937E021C
:1032B00008958D3D31F480917C02816080937C0281
:1032C00008958E3D21F480917C028260F7CF8F3D7E
:1032D000B9F780917C028460F1CF40917F028D3CF0
:1032E00059F48091800287FF0DC010928002411135
:1032F0000BC010927B0208C08E3C81F4809180024A
:1033000018169CF3442381F08091810290918202EF
:10331000892B09F05AC010927A0208958F3C49F423
:1033200047FFF0CF10927F02809180028111ECCF95
:10333000E0CF803D19F41416ACF3E4CF90918102F4
:10334000893D29F41916F4F610928102DBCF8A3DEB
:1033500019F497FFD7CFF8CF909182028B3D29F4D3
:1033600097FFD0CF10928202CDCF8C3D19F4191661
:10337000CCF3C8CF9FE2980F983090F4815D990B01
:1033800021E030E0B90102C0660F771F8A95E2F7AD
:10339000CB01809590917E02892380937E02B2CFEB
:1033A0008D3D31F480917C028E7F80937C02AACF88
:1033B0008E3D21F480917C028D7FF7CF8F3D09F007
:1033C000A1CF80917C028B7FF0CF08950E94DE1DFB
:1033D0009C0190917F0280918002982B21F0309384
:1033E0007902209378029091810280918202982B39
:1033F00021F030937702209376028DE792E00E94CD
:10340000491C089586E0EDE7F2E0DF011D928A9500
:10341000E9F710927B0210927A0210927C020895D2
:10342000FC01828181110EC0838181110BC08481D6
:10343000811108C091E08581811101C090E0892F40
:103440008170089581E0FCCFA6E0B0E0EAE2FAE105
:103450000C94DD2686E0EDE7F2E0DE0111960190A6
:103460000D928A95E1F710927F02109280021092DD
:103470008102109282028B819C81892B89F080913C
:103480007802909179020E94F61DAC0190917B0226
:103490009923C9F1809135018417150608F440C0BD
:1034A0008D819E81892B91F0809176029091770297
:1034B0000E94F61DAC0190917A02992309F46AC02A
:1034C000809131018417150608F472C0BE016F5F48
:1034D0007F4F8DE792E00E940C1D811105C08DE7A2
:1034E00092E00E94101A81110E94E61986E0FE0106
:1034F0003196ADE7B2E001900D928A95E1F72696FC
:10350000E3E00C94F926209136018AE0289F90018F
:1035100011242417350720F69F5F90937B0202C089
:103520009F3FD1F71B81112359F00E948A189FEF0A
:1035300011160CF491E0899F802D112480937F0255
:103540001C81112359F00E948A189FEF11160CF468
:1035500091E0899F802D11248093800280917F02C9
:10356000882309F49DCF10918002112309F498CF8C
:103570000E947C18882351F080937F02812F0E9443
:103580007C18882329F0809380028ACF81E0F4CFD1
:1035900081E0F9CF209132018AE0289F9001112427
:1035A0002417350708F092CF9F5F90937A0202C0EC
:1035B0009F3FD1F71D81112359F00E94C8189FEF3A
:1035C00011160CF491E0899F802D112480938102C3
:1035D0001E81112359F00E94C8189FEF11160CF498
:1035E00091E0899F802D1124809382028091810235
:1035F000882309F46BCF10918202112309F466CF5E
:103600000E947C18882351F080938102812F0E94B0
:103610007C18882329F08093820258CF81E0F4CF70
:1036200081E0F9CFB0E0A0E0E8E1FBE10C94D9261D
:10363000E82FF0E0E459FB4FD490282F26952695EB
:10364000269530E0F901E45FFA4F0491877010E0AD
:10365000082E02C0159507950A94E2F7017011270C
:10366000F901E450FB4FE490F12C082E02C0F594D0
:10367000E7940A94E2F791E0E922FF24F901E4518A
:10368000FB4FC491D0E002C0D595C7958A95E2F76B
:10369000C170DD270115110519F081EE0E945F054B
:1036A000E114F10419F086EE0E945F058D2D0E9451
:1036B000F305E114F10419F086EE0E94A805011546
:1036C000110519F081EE0E94A805CD2B19F08CE2AE
:1036D0000E94F305CDB7DEB7E7E00C94F526982FEE
:1036E0009F709A50963020F0805D0E94121B0895C2
:1036F000895AFBCF0F931F93CF93DF93C42FD22F01
:10370000FC0185818823C9F0409385020E94DE1D5B
:10371000909384028093830280E28C0F883040F47F
:10372000C77081E001C0880FCA95EAF70E94FC05C6
:10373000DF91CF911F910F9108951091850214137D
:1037400032C080918302909184020E94F61D883CD1
:10375000910548F5C0E2CD0F1D17B9F080E2810F49
:10376000883040F4177081E001C0880F1A95EAF79D
:103770000E940306C83048F481E09D2F977001C075
:10378000880F9A95EAF70E94FC05802F0E94F305A6
:10379000C83070F6D77081E001C0880FDA95EAF77B
:1037A0000E940306C5CF80E28C0F883008F6C770F0
:1037B00081E001C0880FCA95EAF7F2CF0F93DB01D1
:1037C00088519C4787309105A0F5FC01E754F84DDE
:1037D0000C94C82606E221EE41EE6AE17CE7CD01B9
:1037E0000E947A1B80E00F91089507E225EE45EED6
:1037F0006BE17CE7F4CF06E221EE40EE68E17CE786
:10380000EECF07E225EE44EE69E17CE7E8CF06E281
:1038100021EE42EE6CE17CE7E2CF07E225EE46EED8
:103820006DE17CE7DCCF08E221E045EE6EE17CE76C
:10383000D6CF15968C91882319F010928502D3CF9C
:1038400081E0D1CF90938C0280938B0208950E94E7
:10385000C413811103C0809186020895E0918B0208
:10386000F0918C02309729F00190F081E02D0995BC
:10387000089580E008950E94271C0895E0918B022E
:10388000F0918C02309721F00280F381E02D0995B0
:103890000895E0918B02F0918C02309739F022E08C
:1038A000DC012C930680F781E02D09950895A3E0B3
:1038B000B0E0EDE5FCE10C94DE2620918902309128
:1038C0008A0228173907A1F090938A02809389020F
:1038D000E0918B02F0918C02309751F023E0298324
:1038E0009B838A830084F185E02DCE0101960995A2
:1038F0002396E2E00C94FA26A3E0B0E0E2E8FCE1D3
:103900000C94DE262091870230918802281739070F
:10391000A1F09093880280938702E0918B02F0914E
:103920008C02309751F024E029839B838A830084A2
:10393000F185E02DCE01019609952396E2E00C94E5
:10394000FA2640910001509101019A012E5F3F4FEC
:10395000485F5F4F80E02417350709F40895F901A7
:1039600091919F019923B9F38F5FF5CF882371F06F
:103970002091000130910101F9013296285F3F4FFB
:103980009191981729F0E217F307D1F780E0089595
:1039900081E008959C01FC0132969FEF80E0419107
:1039A000461751F09F3F19F4411101C0982F8F5FC6
:1039B0008630A9F79F3F09F40895290F311D97FD1F
:1039C0003A95F90162830895FC0132960896219197
:1039D000261303C0DF0111971C92E817F907B9F706
:1039E0000895682F80910001909101010E94CA1CE6
:1039F0000895682F80910001909101010E94E41CBC
:103A00000895E0910001F0910101329686E0DF0116
:103A10001D928A95E9F70895DC01FB0111969C91AE
:103A200011978181981322C012968C911297882346
:103A300019F0928189131AC013968C9113978823D9
:103A400019F09381891312C015968C9115978823CC
:103A500019F0958189130AC014969C91992321F03D
:103A600081E02481291303C080E001C081E08170DE
:103A7000089508950E94391D0895811106C081E0BE
:103A800080938D020E943A1D089582E0F9CF83E071
:103A900080938D020E943A1D08950E943D1D089555
:103AA00081E080938D020E943A1D08950E94501D6E
:103AB0000895089508950E945A1D0895089508953F
:103AC0000E94591D0895CF930E945E1D0E943513D8
:103AD0000E945F1DC0E08C2F0E941612811105C04C
:103AE000CF5FC830C1F7CF91089581E0FCCF85B793
:103AF000806885BF85B7806885BF08951F921FB60F
:103B00001F9211248F939F93AF93BF9380918E0246
:103B1000811113C08091B4029091B502A091B602B8
:103B2000B091B7024196A11DB11D8093B40290934C
:103B3000B502A093B602B093B702BF91AF919F9127
:103B40008F911F901FBE1F9018958091BC028430EA
:103B500031F10E94D30410928E0288E190E020E4BB
:103B60000FB6F894A895809360000FBE2093600074
:103B700083B7817F846083BF83B7816083BF78947C
:103B8000889583B78E7F83BF0FB6F894A8958091F0
:103B90006000886180936000109260000FBE0895FD
:103BA0000E9460080E94D804089582E084BD93E0DA
:103BB00095BD9AEF97BD80936E0008952FB7F89446
:103BC0008091B4029091B502A091B602B091B70273
:103BD0002FBF08952FB7F8946091B4027091B50289
:103BE0008091B6029091B7022FBF08959C014FB704
:103BF000F8948091B4029091B502A091B602B09170
:103C0000B7024FBF821B930B0895CF92DF92EF92C2
:103C1000FF922FB7F894C090B402D090B502E09014
:103C2000B602F090B7022FBFA7019601261B370BF3
:103C3000480B590BCA01B901FF90EF90DF90CF906C
:103C4000089578941F921FB61F9211248F939F930B
:103C5000AF93BF938091B4029091B502A091B60248
:103C6000B091B7020196A11DB11D8093B40290934B
:103C7000B502A093B602B093B702BF91AF919F91E6
:103C80008F911F901FBE1F90189587E797E790931D
:103C900001088093000888E19AE00FB6F894A8958F
:103CA000809360000FBE90936000FFCF88E19AE0A0
:103CB0000FB6F894A895809360000FBE90936000B3
:103CC000FFCF8EE14A9B02C08150E1F74A9BFECFB5
:103CD00008955A9880E28A95F1F75A9A0895FC015E
:103CE0003BE03A95F1F798E020E080E031E040E1F8
:103CF0004A95F1F7880F4A9B02C08160232742E072
:103D00004A95F1F7000040E14A95F1F7915079F7B3
:103D100090E19A95F1F799B132E03A95F1F7000008
:103D200040E14A95F1F792FB992790F9922720817B
:103D3000920F90830895A1E0B0E0E1EAFEE10C94D7
:103D4000DA2619828C017C01E60EF11C0E151F0586
:103D500041F481E09981911180E02196E6E00C9494
:103D6000F6260E94611ECE0101960E946F1EF80188
:103D700081938F01EBCF529A5A9A089552985A9A8A
:103D8000EA9AE9E6F0E080818F7C808308956150B3
:103D9000770B91E001C0990F6A95EAF720E031E0D6
:103DA000911108C0222391F05A9A80E28A95F1F786
:103DB0005A980895492F482339F05A9A232740E208
:103DC0004A95F1F79695ECCF5A98F9CF5A98EDCFDE
:103DD000FF920F931F93CF93DF93EC018C01060F9B
:103DE000111DC017D10729F4CDB7DEB7E5E00C945B
:103DF000F726F9900E94691E68E08F2D0E94C71E69
:103E0000F0CF1F920F920FB60F9211240F931F93B2
:103E10002F933F934F935F936F937F938F939F93D2
:103E2000AF93BF93EF93FF93CF93DF930F92CDB7F1
:103E3000DEB719820E94611ECE0101960E946F1E9C
:103E4000082F069506950695282F22952570902F08
:103E50009570290F922F937026952695920F98278B
:103E600097708981982B09F05CC0043008F059C024
:103E700080E18A95F1F75A9A529A82E08A95F1F791
:103E800000C05A9888E0089F80011124D801A95EDB
:103E9000BE4F1696ED91FC9117973097A9F060915F
:103EA000C8017091C90114962D913C911597260F68
:103EB000371F11968D919C911297680F791F139659
:103EC0004C9113978C910995F801E95EFE4F63813F
:103ED000662351F02091C8013091C90184819581F8
:103EE000820F931F0E94E81E0E94691E80E18A953E
:103EF000F1F75A9852985A9A80E18A95F1F7F801A9
:103F0000E95EFE4F6081662351F02091C801309137
:103F1000C90181819281820F931F0E949B1E0E9482
:103F2000611E0F90DF91CF91FF91EF91BF91AF9103
:103F30009F918F917F916F915F914F913F912F91C1
:103F40001F910F910F900FBE0F901F9018950F9318
:103F50001F93CF93DF93EC0104970CF04CC0F894BF
:103F6000529A5A9885E08A95F1F700009C2F969511
:103F700095708C2F8570980F892F837096959695E4
:103F800023E0CC0FDD1F2A95E1F7980F8E01092B56
:103F90000E94691E00C068E0802F0E94C71E80E159
:103FA0008A95F1F752985A9A4A9B1EC087E090E092
:103FB0004A991CC0FE01E95EFE4F63816623F9F059
:103FC0002091C8013091C90184819581820F931F8E
:103FD0000E949B1E811113C0529A5A9A7894DF91C5
:103FE000CF911F910F91089500C0DECF019729F462
:103FF000529A5A9A789480E0F2CF00C0D9CF0E94AA
:10400000611E80E28A95F1F75A98529A80E18A956A
:10401000F1F7C95EDE4F6881662351F02091C80137
:104020003091C90189819A81820F931F0E94E81EF5
:104030000E94691E789481E0D2CF80919702089502
:1040400008959B01BA019091BC029430E9F48F70FD
:104050008093E9009FEF8091E800915085FD06C0B4
:1040600085ED8A95F1F700009111F5CF8091E80078
:1040700085FF0AC050E040E0C9010E941B228091E8
:10408000E8008E778093E800089543E050E0BC019B
:1040900082E00E942120089546E050E0BC0182E0C9
:1040A0000E9421200895CF93DF93EC0148E050E077
:1040B000BC0181E00E94212088E0FE01AFE8B2E06F
:1040C00001900D928A95E1F7DF91CF91089580914B
:1040D000BB02811109C00E94AB230E940824809179
:1040E000E20084608093E20008951092BB0208957C
:1040F0000E94501D08956091B80281E0611101C0D5
:1041000080E00E94471D08959091BC0281E09430A8
:1041100009F080E06091B8020E944D1D089542E0D0
:1041200061EC81E00E94272342E261EC82E00E9480
:1041300027239091BC0281E0943009F080E06091E7
:10414000B8020E943D1D08958091BE02833009F49B
:1041500061C030F48130D1F1823009F49EC00895FD
:104160008A3009F48AC08B3009F46FC0893009F0B5
:1041700050C08091BD02813209F04BC08091C102D4
:104180009091C202029708F044C08091E800877FB6
:104190008093E8008091E80082FF37C09091F3009F
:1041A0008091F200029731F48091F100813011F09A
:1041B000863021F48091F100809397028091E8008D
:1041C0008B778093E8000E945B2323C08091BD021F
:1041D000813AF9F48091E800877F8093E80080912C
:1041E000C1029091C202892B61F468E08FE892E0ED
:1041F00070E00E946A228091E8008B778093E8004B
:10420000089560E090E080E0F3CF8091BC028111DE
:10421000C1CF08958091BD02813AD9F78091C10242
:104220009091C202892BA9F78091E800877F809343
:10423000E8008091E80080FFFCCF809141018093ED
:10424000F1008091E8008E77BCCF8091BD02813271
:1042500001F78091C1029091C202892BD1F6809121
:10426000E800877F8093E8000E945B238091BF0273
:10427000809341010E94600808958091BD028132BF
:1042800041F68091E800877F8093E8000E945B23DD
:104290008091C0028093980208958091BD02813A76
:1042A00009F0B7CF8091E800877F8093E800809184
:1042B000E80080FFFCCF80919802C1CF84B7877F50
:1042C00084BF0FB6F894A8958091600088618093B0
:1042D0006000109260000FBE80E890E00FB6F89486
:1042E00080936100909361000FBE0E94561D089557
:1042F0000E94AB230E940824E2EEF0E080818460FB
:10430000808378940E948726089587E391E00E9435
:10431000221C08958091BC02853031F48091BC024A
:10432000853019F00E94D01D08950E94A51D80912E
:10433000BA02882399F30E94631D882379F30E94AF
:1043400005220E946008EACF08959A014091C302B5
:104350005091C4020E94AD210895492F5527433042
:10436000510519F168F44130510509F444C0423057
:10437000510509F445C090E080E050E040E025C0E0
:104380004132510549F142325105A9F784E490E0E8
:104390004EE056E061157105C1F08BE790E043E90E
:1043A00055E06130710589F0E6CF9927813091059C
:1043B00081F0009729F00297F1F6ECE1F5E002C0F8
:1043C000E2E4F5E0849190E0AF01F901518340838C
:1043D0000895E8E3F5E0F6CF89E090E048E555E0A0
:1043E0006115710591F389E090E041E755E0613096
:1043F000710559F3C0CF82E190E041E855E0E5CF87
:104400008BE390E046E455E0E0CF80E189BD82E1B6
:1044100089BD09B400FEFDCF8091D8008F7D8093C7
:10442000D8008091E00082608093E0008091E000FD
:1044300081FDFCCF0895AF92BF92CF92DF92FF92A1
:104440000F931F93CF93DF936C01EB018A010E94BE
:104450007A23F82E811123C00115110539F0F801D6
:1044600080819181C81BD90BC80ED91EB12CA12CFB
:104470002097A9F08091E80085FD22C08091E80096
:104480008E778093E80001151105A1F0F801808175
:104490009181A80EB91EB182A08285E0F82E8F2DE1
:1044A000DF91CF911F910F91FF90DF90CF90BF9040
:1044B000AF9008950E947A238823D1F2F82EEFCF8F
:1044C000F60181916F018093F1002197FFEFAF1A00
:1044D000BF0ACECFFC018091C3029091C40286171F
:1044E0009707A0F06115710529F49091E8009E7777
:1044F0009093E80090E06115710551F4911108C0A6
:104500008091E80082FF34C080E00895BC01F2CFC2
:104510008091BC028823C1F18530C1F18091E8000F
:1045200083FD30C08091E80082FDEACF8091E800F1
:1045300080FFE1CF8091F3002091F200382F6115C8
:10454000710519F02830310558F091E02830310517
:1045500009F090E02091E8002E772093E800CBCF7F
:1045600081918093F100615071092F5F3F4FE7CF38
:104570008091BC02882341F0853041F08091E800B1
:1045800083FFBECF81E0089582E0089583E008951F
:10459000FC018091C3029091C40286179707A0F096
:1045A0006115710529F48091E8008E778093E80009
:1045B00090E06115710551F4911108C08091E800F7
:1045C00082FF35C080E00895BC01F2CF8091BC022B
:1045D0008823C9F18530C9F18091E80083FD31C09D
:1045E0008091E80082FDEACF8091E80080FFE1CF72
:1045F0008091F3002091F200382F6115710519F0B8
:104600002830310558F091E02830310509F090E06C
:104610008091E8008E778093E800CBCF84918093DF
:10462000F1003196615071092F5F3F4FE6CF8091C5
:10463000BC02882341F0853041F08091E80083FF7F
:10464000BDCF81E0089582E0089583E00895982F1A
:10465000973028F08F708093E90081E0089590935F
:10466000E900242F762F50E0981731F07091EC007C
:104670002091ED005091F00021FD02C09F5FE8CF36
:104680003091EB003E7F3093EB003091ED003D7FA9
:104690003093ED003091EB0031603093EB0070937C
:1046A000EC002093ED005093F0002091EE0027FDE8
:1046B000E5CF80E008958091BD0287FF13C080910F
:1046C000E80082FF06C08091E8008B778093E800C5
:1046D00004C08091BC028111F2CF08958091BC0288
:1046E0008823D9F38091E80080FFF8CF8091E8001B
:1046F0008E77ECCF2091E4003091E50095E6A9019A
:104700002091EC00822F817020FF06C08091E8008C
:1047100080FF06C080E008952091E80022FD1AC0C5
:104720008091BC02882389F0853089F08091EB006C
:1047300085FD0FC02091E4003091E500421753073A
:10474000F9F29150E1F684E0089582E0089583E063
:10475000089581E008950E941A240E942224E0EE28
:10476000F0E0808181608083E8EDF0E080818F77E8
:10477000808319BCA7EDB0E08C918E7F8C938081F3
:104780008F7E80831092BB0208950F931F93CF9367
:10479000DF930E941A240E942224C8EDD0E0888171
:1047A0008F77888388818068888388818F7D8883DC
:1047B00019BC1092BC021092B8021092BA02109268
:1047C000B90200EE10E0F80180818B7F8083888140
:1047D0008160888342E060E080E00E942723E1EE70
:1047E000F0E080818E7F8083E2EEF0E08081816066
:1047F0008083808188608083F80180818E7F8083C0
:10480000888180618883DF91CF911F910F910895F6
:10481000E8EDF0E080818F7E8083E7EDF0E080813D
:104820008160808384E082BF81E08093BB020E942C
:10483000C5230895E8EDF0E080818E7F808310929B
:10484000E20008951092DA001092E10008951F929C
:104850000F920FB60F9211242F933F934F935F93B4
:104860006F937F938F939F93AF93BF93EF93FF9338
:104870008091E10082FF0BC08091E20082FF07C0BF
:104880008091E1008B7F8093E1000E9486268091D9
:10489000DA0080FF19C08091D80080FF15C0809198
:1048A000DA008E7F8093DA008091D90080FF96C075
:1048B00080E189BD82E189BD09B400FEFDCF81E0C0
:1048C0008093BC020E9467208091E10080FF19C0A4
:1048D0008091E20080FF15C08091E2008E7F80937E
:1048E000E2008091E20080618093E2008091D80034
:1048F00080628093D80019BC85E08093BC020E943E
:104900007B208091E10084FF2BC08091E20084FF36
:1049100027C080E189BD82E189BD89B5982F91705A
:1049200080FFFBCF8091D8008F7D8093D80080914D
:10493000E1008F7E8093E1008091E2008F7E809382
:10494000E2008091E20081608093E2008091B802F1
:10495000882309F449C084E08093BC020E9484202B
:104960008091E10083FF29C08091E20083FF25C090
:104970008091E100877F8093E10082E08093BC0218
:104980001092B8028091E1008E7F8093E1008091C7
:10499000E2008E7F8093E2008091E200806180934C
:1049A000E20042E060E080E00E9427238091F00076
:1049B00088608093F0000E947820FF91EF91BF9172
:1049C000AF919F918F917F916F915F914F913F91A7
:1049D0002F910F900FBE0F901F90189519BC109239
:1049E000BC020E94752070CF8091E30087FD93E0A8
:1049F0009093BC02B3CF1F920F920FB60F92112467
:104A00002F933F934F935F936F937F938F939F93D6
:104A1000AF93BF93CF93DF93EF93FF93D091E900D0
:104A2000DF708091EC00C82FC17080FDC0E810924B
:104A3000E9008091F000877F8093F00078940E94D5
:104A40003F251092E9008091F00088608093F0008B
:104A5000CD2BCF70C093E900FF91EF91DF91CF9103
:104A6000BF91AF919F918F917F916F915F914F9186
:104A70003F912F910F900FBE0F901F901895AAE2B3
:104A8000B0E0E5E4F5E20C94DD268DEB92E02091B8
:104A9000F100FC012193CF01F2E0853C9F07B9F7BB
:104AA0000E94A4208091E80083FF1EC18091BD0276
:104AB0009091BE029A3008F017C1E92FF0E0E0545F
:104AC000F84D0C94C826803899F0823809F00CC152
:104AD0008091C1028F70873008F006C18093E90091
:104AE0008091EB0085FB882780F91092E90006C0D1
:104AF0008091B9029091BA02911182609091E80080
:104B0000977F9093E8008093F1001092F1008091DC
:104B1000E8008E77E5C0882309F4D3C0823009F01D
:104B2000E3C08091BF028111D6C08091C1028F7015
:104B30002FEF280F263008F0D7C08093E90020918E
:104B4000EB0020FFC8C0933031F48091EB0080620D
:104B50008093EB00C0C09091EB0090619093EB00CC
:104B600021E030E001C0220F8A95EAF72093EA00A5
:104B70001092EA008091EB008860EACF8111B4C006
:104B80001091BF021F778091E3008078812B809382
:104B9000E3008091E800877F8093E8000E945B2318
:104BA0008091E80080FFFCCF8091E30080688093D3
:104BB000E30082E0111183E08093BC0295C080582D
:104BC000823008F091C08091BF029091C0028C3D6C
:104BD00023E09207A1F583E08A838AE289834FB7B5
:104BE000F894DE01139620E03EE051E2E32FF0E07E
:104BF00050935700E49120FF03C0E295EF703F5FB0
:104C0000EF708E2F90E0EA30C0F0C7968D939D93A1
:104C10002F5F243159F74FBF8091E800877F809341
:104C2000E8006AE270E0CE0101960E946A2280915B
:104C3000E8008B778093E80057C0C096E7CF60917B
:104C4000C1027091C202AE014F5F5F4F0E94A52169
:104C5000BC01892B09F448C09091E800977F90939C
:104C6000E80089819A810E94C822E1CF8038E1F56D
:104C70008091E800877F8093E8008091B80280935C
:104C8000F10045CF811130C09091BF02923060F5A4
:104C90008091E800877F8093E8009093B8020E949B
:104CA0005B238091B802882311F084E005C08091D5
:104CB000E30087FDFACF81E08093BC020E948F2041
:104CC00013C08091BF02813079F481E0933009F004
:104CD00080E08093BA021092E9008091E800877F1B
:104CE0008093E8000E945B238091E80083FF0AC064
:104CF0008091E800877F8093E8008091EB008062DC
:104D00008093EB00AA96E3E00C94F9260895CF93E4
:104D10008091BC028823A1F0C091E900CF709091EE
:104D2000EC00892F817090FD80E8C82B1092E9007B
:104D30008091E80083FD0E943F25CF70C093E90079
:104D4000CF9108950E94AB231092BC020895E8ED24
:104D5000F0E08081806180838AE18A95F1F700C06C
:104D60008091D9008170089597FB072E16F4009466
:104D700007D077FD09D00E94052707FC05D03EF437
:104D8000909581959F4F0895709561957F4F0895F7
:104D9000EE0FFF1F0590F491E02D09942F923F92A2
:104DA0004F925F926F927F928F929F92AF92BF923B
:104DB000CF92DF92EF92FF920F931F93CF93DF93E7
:104DC000CDB7DEB7CA1BDB0B0FB6F894DEBF0FBE44
:104DD000CDBF09942A88398848885F846E847D8491
:104DE0008C849B84AA84B984C884DF80EE80FD8093
:104DF0000C811B81AA81B981CE0FD11D0FB6F89409
:104E0000DEBF0FBECDBFED010895AA1BBB1B51E154
:104E100007C0AA1FBB1FA617B70710F0A61BB70B2A
:104E2000881F991F5A95A9F780959095BC01CD01CF
:104E30000895FB01DC0104C08D910190801921F4DB
:104E400041505040C8F7881B990B0895FB01DC01C5
:104E500002C001900D9241505040D8F70895F99941
:104E6000FECF92BD81BDF89A992780B50895A8E13B
:104E7000B0E042E050E00C947327DC01A40FB51FB2
:104E80004150504048F0CB01840F951F2E910E9455
:104E90004E2741505040D0F70895262FF999FECF64
:104EA00092BD81BDF89A019700B4021639F01FBA7D
:104EB00020BD0FB6F894FA9AF99A0FBE089503969A
:104EC000272F0E944E270E944D27252F0E944E27F4
:104ED000242F0C944E270196272F0E944E270C94C6
:104EE0004D27DC01CB01FC01F999FECF06C0F2BDD4
:104EF000E1BDF89A319600B40D9241505040B8F798
:104F00000895F894FFCF4B064B069B069B060007BF
:104F10001C077A067A0621079207A107A107F71551
:104F2000041609160D160F16111613161516F81776
:104F30006C180018CA17CE170418D21708181418BE
:104F4000DE176518E2171818E6171C184418EA1738
:104F500020184B18F01726182E18D6170C18DA1729
:104F60001018F4172A183A1854186318C417FC17A5
:104F70007318FB1B011CEA1BF51B071C0D1C131CE3
:104F800063258B2574268B257426BE25DF25742684
:044F90003626422659
:104F94003602C6F7F6F5F4313332369391909466BF
:104FA400973435FFFFFF01000000010000000000FE
:104FB40000000401000000040500000000000028B7
:104FC4000850011E0A14011D20532020204C2045A6
:104FD4002001F4F5F6F7C693363233319766949090
:104FE400913534FFFFFFE200E900EA00B500B600A6
:104FF400B700CD008301CC008A0192019401210203
:10500400230224022502260227022A02B300B40046
:105014006F0070009F01CB019F02A002818283E296
:1050240000E900EA00B500B600B700CD008301CC6A
:10503400008A0192019401210223022402250226FE
:105044000227022A02B300B4006F0070009F01CB54
:0A505400019F02A0028182835C022A
:00000001FF
