:100000000C9487020C94A4020C94A4020C94181C67
:100010000C94A4020C94A4020C94A4020C94A402C8
:100020000C94A4020C94A4020C9448230C941C2459
:100030000C945C1E0C94A4020C94A4020C94A402D4
:100040000C94A4020C94A4020C94A4020C94A40298
:100050000C94A4020C94FF1E0C94A4020C94A40211
:100060000C94A4020C94A4020C94A4020C94A40278
:100070000C94A4020C94A4020C94A4020C94A40268
:100080000C94A4020C94A4020C94A4020C94A40258
:100090000C94A4020C94A4020C94A4020C94A40248
:1000A0000C94A4020C94A4020C94A40234003646CE
:1000B000370013471C0004001243084418450C0085
:1000C000332814210D240E281B4529422C22000020
:1000D0000000000009000A47060015460F0007004F
:1000E0000B45174411431600054510381A341931D1
:1000F0001D382C322A42000000000000E000E10020
:10010000DA00DE00DF00E300CF00CE00CD00D0003B
:10011000D200DC00D900DB0028000052D100000032
:1001200000000000DF00DE00DA00E500E400CF00A0
:10013000CE00CD00D000E7002800DC00D900DB00B5
:10014000D200D10000520000000000002F002F025A
:100150002602340035001E001F002000210022006E
:1001600031005021512452284F000000E1000000CE
:10017000000000002E002D00270230023000230076
:1001800024002500260027005000513852344F31FA
:100190003800E50000000000000000000000000042
:1001A0002900290029000000000035002B00000074
:1001B000000000000000350800002B08E7000000E8
:1001C00000000000290029002900000000000000B4
:1001D0002B00350000000000000035180000000072
:1001E0000000E7002B1800000000000000000000E5
:1001F00000000000000000000000000028000000D7
:1002000000000000000000000000000000000000EE
:1002100000000000000000000000000000000000DE
:1002200028000000000000000000000000000000A6
:10023000000000000000000000000000210820086D
:100240001F081E0822083900090601524400450013
:100250003A003B003C003D003E000000150A000053
:100260000000000022181E181F18201821184A002C
:100270004D000152091639003F0040004100420084
:100280004300151A000000000000000000000000FC
:10029000AA00A900B00C00000000BE00BD000000D4
:1002A000000000000000000000000000000000004E
:1002B00000000000B01CAA00A9000000000000001F
:1002C000BE00BD00000000000000000000000000B3
:1002D0000000000000000000000000000F0D150DE0
:1002E000060D0A0D090D160D110D170D0B0D070D3D
:1002F0001D0D190D1A0D100D050D2A0D2C0D0000E8
:1003000000000000090D0A0D060D150D0F0D070D5B
:100310000B0D170D110D160D050D100D1A0D190DE4
:100320001D0D2C0D2A0D0000000000000000000033
:10033000000000002A2B2800000000000000000040
:100340000000000000000029000000002C1E3420E6
:10035000212224342627252E362D3738271E1F200C
:100360002122232425263333362E37381F04050651
:100370000708090A0B0C0D0E0F1011121314151695
:100380001718191A1B1C1D2F3130232D3504050693
:100390000708090A0B0C0D0E0F1011121314151675
:1003A0001718191A1B1C1D2F3130354C0000000086
:1003B000000000000000000000000000000000003D
:1003C000000000000000000000000000000000002D
:1003D0007E0F00D4FFFFFFC7000000781A0346001D
:1003E00065007200720069007300200073007700DE
:1003F00065006500700000000803440050004200E2
:1004000000000403090409023B00020100A0FA09EC
:100410000400000103010100092111010001224033
:100420000007058103080001090401000103000021
:1004300000092111010001227B0007058203200031
:10044000011201000200000008ABC23939010001AD
:1004500002000105010902A10185020901A10005AF
:100460000919012908150025019508750181020562
:1004700001093009311581257F950275088106092A
:10048000381581257F950175088106050C0A38020B
:100490001581257F950175088106C0C00501098079
:1004A000A101850319012AB700150126B70095019E
:1004B00075108100C0050C0901A101850419012AEC
:1004C000A002150126A002950175108100C005014A
:1004D0000906A101050719E029E71500250195087E
:1004E000750181029501750881010507190029FF31
:1004F000150026FF009506750881000508190129D9
:1005000005950575019102950175039101C01124AE
:100510001FBECFEFDAE0DEBFCDBF11E0A0E0B1E05B
:10052000E6EDFDE402C005900D92A83CB107D9F7B5
:1005300022E0A8ECB1E001C01D92A23CB207E1F7B5
:100540000E942A150C94A2260C9400008830B8F45E
:100550006830A8F4453098F450E095E0699F400D6C
:10056000511D1124FA0198E2899FE00DF11D11241B
:10057000EE0FFF1FE455FF4F85919491089581E0A0
:1005800090E008950E94A60208959C013A952115D5
:100590003F4150F5FC01EE27F170BC0166277270F7
:1005A000AC01442754709C012227387094FF0EC080
:1005B00080E1EF2B09F480E0672B09F08062452B86
:1005C00009F08064232B89F08068089581E0EF2B87
:1005D00009F480E0672B09F08260452B09F0846004
:1005E000232B19F08860089580E00895CF93DF935E
:1005F000EB010E94C502FE010995DF91CF9108959C
:10060000CF93DF93EC01805E9109089720F062E9B7
:1006100077E0209711F464E575E0CE010E94F602C0
:100620008C2F0E94B304DF91CF910895CF93DF9375
:10063000EC010E940005CE01805E9109089720F030
:1006400069E977E0209711F46BE575E0CE010E942F
:10065000F602DF91CF9108950F931F93CF93DF930D
:100660008C01EB010E940003209741F4C8010E9415
:100670001603DF91CF911F910F9108958FE99FE0AD
:100680000197F1F700C000002197EECF70E060E025
:100690008933910511F460E570E00E942C03089500
:1006A00081E008950E945003089581E008950E941A
:1006B000500308950E945703089508950E945D0312
:1006C0000895A6E0B0E0E7E6F3E00C94FE25498348
:1006D0005A839E833091CF0189819A8131111AC04A
:1006E0003E81332399F0222389F00E940509182FB7
:1006F000682F89819A810E94E10869817A81812F1E
:100700000E94F50F2696E3E00C941A260E94F30847
:10071000182FF3CF0E94050969817A81F1CFFC017E
:10072000262F4081518162817381848195810E944D
:1007300061030895CF93DF93EC0161E00E948F0382
:10074000BE010E945203DF91CF910895CF93DF93B2
:10075000EC0160E00E948F03BE010E945E03DF9106
:10076000CF91089508950E94B6070E94B2032FEF1B
:1007700084E39CE0215080409040E1F700C00000FD
:1007800008950E94B3030E94231F08950E94B3039B
:100790000E94341F08950F931F93CF93DF938C0112
:1007A00061E00E948F03EC01B8010E945A0381119D
:1007B00006C080E0DF91CF911F910F910895B8019D
:1007C000CE010E94E1178823A1F3B801CE010E9457
:1007D000341B882371F3B801CE010E94621988236B
:1007E00041F3B801CE010E94A61A882311F3F80143
:1007F0008581882361F0C330FCE7DF07E9F058F416
:10080000C115ECE7DE07A9F0C130DC47B9F0C8013B
:100810000E945503CFCFCB358CE7D807A9F0CC3554
:10082000ECE7DE0771F0CA35DC4789F70E943E0D20
:10083000EECF0E94C103BDCF0E94460D0E94C603A9
:10084000B8CF0E94340DE3CF0E94420DE0CF0E944A
:10085000391E0E944E0408950E9452040E943E1EBA
:100860000895089581E008950895CF93DF93D82FD8
:100870000E943204C82F882319F08D2F0E9434045F
:100880008C2FDF91CF9108950895CF93C82F0E94A8
:1008900031048C2F0E943504CF91089580E00E948E
:1008A000450408950E943E1D0E9445040895CF937B
:1008B0000E943E1DC82F8091CA018C1779F0C09309
:1008C000CA010E94C81E6093CB017093CC01809333
:1008D000CD019093CE018C2F0E944504CF910895B5
:1008E000ADE0B0E0E6E7F4E00C94FF2548875987D7
:1008F0006A877B878C879D8791110E946C0C1F8271
:1009000086E0FE013896DE01119601900D928A95DF
:10091000E1F78D8181110DC029813A814B815C8184
:100920006D817E818F810E949C0B2D96E2E00C945C
:100930001B26CE0101960E949A038111EDCFF5CFBF
:10094000FC012481213021F4808191810E943709AA
:100950000895662329F00E94AE150E94811608951D
:100960000E940816FACFCF93C82F8823B9F08CEFD6
:100970008C0F813AA8F46C2F8091000190910101B5
:100980000E94CA1D882329F08C2F0E94290C0E94E6
:10099000A50C8C2F0E94210C0E94A50CCF910895CC
:1009A00080E28C0F883048F4C77081E001C0880F66
:1009B000CA95EAF70E944C0CEFCFEBE5EC0FE33061
:1009C00040F4F0E0E657FE4F808190E00E946E1DFB
:1009D000E5CFE8E5EC0FEB3150F4F0E0EE0FFF1F50
:1009E000EC5AFE4F808191810E94931DD7CF83E303
:1009F0008C0F833198F661E08C2F0E94A904CECF32
:100A0000882381F19CEF980F913A28F40E94290CD9
:100A10000E94A50C089590E2980F983050F48770CA
:100A200091E001C0990F8A95EAF7892F0E94520C34
:100A3000EFCF9BE5980F933028F490E080E00E9480
:100A40006E1D089598E5980F9B3128F490E080E0A2
:100A50000E94931D089593E3980F933118F460E07A
:100A60000E94A90408951F93CF93DF93182FEB01E1
:100A70000E94B304209739F4812F0E940005DF9172
:100A8000CF911F9108958FE99FE00197F1F700C082
:100A900000002197EFCF70E060E0893311F460E54A
:100AA00070E00E9433050895882321F00E944C0CC9
:100AB0000E94A50C0895882321F00E94520C0E94E8
:100AC000A50C0895B0E0A0E0E8E6F5E00C94F82568
:100AD0006C01D62FC72FFC011581068102950F707E
:100AE0000E94420CE82E8823E9F0E12E1123D1F078
:100AF0008C2F807F803451F080E28D0F8830F8F0A9
:100B0000011104C08C2F807E8032C9F080919B023D
:100B100082FF15C082E00E94080D0E94420C91E005
:100B2000E82EE926BC2EB2949FE0B922FBE0FB152B
:100B3000B8F1EB2DF0E0EC55F94D0C94E925E12CE2
:100B4000F1CF0C2F0F70C07F11F00295007F1123A1
:100B500099F0002359F080E28D0F883010F0D11108
:100B600007C0802F0E944C0C0E94A50C8D2F5AC0EC
:100B7000802F0E945F0CF8CF8D2F0E94000500236C
:100B800079F080E28D0F883010F0D11104C0802FF1
:100B90000E94520C03C0802F0E94650C0E94A50C7D
:100BA000EB2DE850FF0B349720F40E943E1D0E946D
:100BB0004504EE2089F00E943E0C80FD0DC0F60138
:100BC00015820E94380C0E943F08C6010E946F07E0
:100BD0000E94380C0E944F08CDB7DEB7E9E00C94B4
:100BE00014262C2F2F70F22EC07FC03219F0F294F1
:100BF00080EFF822DD2341F0D130D1F1112309F447
:100C000044C00023F1F0B2CF80919B0282FD15C059
:100C1000112359F0FF2029F08F2D0E944C0C0E94C7
:100C2000A50C80E00E94B304BBCF80E00E940005C9
:100C3000FF2009F4B5CF8F2DABCF112369F001113F
:100C400004C08F2D0E945405ABCF013009F0A8CF0E
:100C50008F2D0E94830CA4CF0111A2CF8F2D0E9453
:100C60005B058F2D0E948F0C8F2D0E94730C98CFE7
:100C7000112321F0063008F093CFE3CF053008F0C0
:100C80008FCF8F2D0E945B058BCF0023D1F3D933FB
:100C900049F43FEF87EE93E0315080409040E1F718
:100CA00000C000008D2F0E9400057ACF8C2F869502
:100CB0008695837069F0813009F072CF8D2F9C2F5B
:100CC0009370111102C080E090E00E94931D68CFE4
:100CD0008D2F9C2F9370111102C080E090E00E9434
:100CE0006E1D5ECF612F8D2F0E94A90459CF8C2FCE
:100CF0008370A1F5111154CF4D2F42954695477041
:100D0000440F440F2D2F2F7030E0042E02C0220F0D
:100D1000331F0A94E2F790E080E0D4FF09C08FE02F
:100D200090E002C0880F991F4A95E2F78095909550
:100D3000C695C695C370822B932BC23049F058F4E8
:100D4000C13019F00E940F082BCF0E94060828CF4F
:100D50000E94180825CF0E94030822CF86951123F0
:100D600011F08C2F8170882309F41ACF4D2F4295F2
:100D700046954770440F440F2D2F2F7030E0042EFE
:100D800002C0220F331F0A94E2F790E080E0D4FF04
:100D900009C08FE090E002C0880F991F4A95E2F7E2
:100DA00080959095C695C695C370822B932BC230C3
:100DB00049F058F4C13019F00E947A08F1CE0E942F
:100DC0007108EECE0E948308EBCE0E942708E8CE81
:100DD000CF70112329F08C2F0E943F088D2F32CF26
:100DE0008D2F0E945B058C2F0E944F08D9CED23FD9
:100DF00041F160F4D03FB9F0D13F81F0112309F403
:100E000046C00111B3CE8C2F8F711FC0D33F01F1AB
:100E1000D43FA1F780919B0282FD24C08C2F8F715B
:100E2000112311F312C0112341F0053008F0B8CEA0
:100E30008C2F8F710E946108B3CE063008F0B0CEBF
:100E4000F7CF8C2F8F711111CFCF0E943F08A8CE02
:100E5000112329F08C2F8F710E943308A1CE0E949C
:100E60002E089ECE112349F0CF718C2F0E943F088F
:100E700063E08C2F0E94EA0C93CE81E00E94080D63
:100E8000023008F48DCE82E00E94080D89CE002346
:100E900059F0D93309F006CFEFEFF7EE23E0E15038
:100EA000F0402040E1F7FCCE8C2F8F719DCF0F9347
:100EB0001F93CF93DF93EC01688179818D810E942C
:100EC00042098C010E948C080E940208B801CE01E0
:100ED0000E946205DF91CF911F910F910895CF93EA
:100EE000DF93EC018C81882399F0CE010E94CB0323
:100EF000811111C00E94420C882351F08D818823FA
:100F000039F080919B0282FF03C082E00E94080DAD
:100F1000DF91CF910895CE010E945707CE010E9424
:100F2000A603F6CF882321F00E945F0C0E94A50C37
:100F30000895882321F00E94650C0E94A50C089555
:100F400090E080E00E946E1D90E080E00E94931D82
:100F50000E946C0C0E94A50C0E949D160E94811696
:100F600008950E94310C0E94A00708950E945C0C15
:100F70000E94B107089592959F70963091F058F4B1
:100F8000925F9F70923058F4803F19F030F4883EA1
:100F900030F481E008959A5FF4CF843FD1F380E08C
:100FA0000895883EB0F3813FD1F7F3CFFC0124814F
:100FB000222339F0808191810E9437090E94BB076A
:100FC000089580E00895A6E0B0E0E9EEF7E00C9423
:100FD000FF252696E2E00C941B26A7E0B0E0E3EFA5
:100FE000F7E00C94FF252796E2E00C941B26089569
:100FF0000E94F70708950E94F8079093E7018093F5
:10100000E601089508950E94FB0708952091E601E6
:101010003091E701822B932B0E94FB0708952091CA
:10102000E6013091E701822393230E94FB07089594
:101030002091E6013091E701822793270E94FB0768
:1010400008950E94F70708950E94210808950E94BC
:1010500024089093E5018093E401089590E080E0F6
:101060000E942708089521E030E0A90102C0440F42
:10107000551F8A95E2F7CA010E942708089521E0CA
:1010800030E002C0220F331F8A95E2F78091E4011D
:101090009091E501822B932B0E942708089521E06F
:1010A00030E002C0220F331F8A95E2F72095309579
:1010B0008091E4019091E501822393230E94270807
:1010C000089521E030E002C0220F331F8A95E2F735
:1010D0008091E4019091E501822793270E942708DF
:1010E00008952091E4013091E501822B932B0E9419
:1010F000270808952091E4013091E501822393238C
:101100000E94270808952091E4013091E50182278B
:1011100093270E94270808950895262F277091E0AD
:1011200001C0990F2A95EAF723E0769567952A95ED
:10113000E1F7660F771F660F771FFA01E60FF71FBB
:1011400050E040E0682F70E08191DF0111979B0132
:10115000042E02C0369527950A94E2F72170219556
:101160002827292328272C934F5F5F4F44305105B0
:1011700059F70895A82FA77023E0969587952A958B
:10118000E1F7880F991F880F991FFB01E80FF91FDE
:1011900050E040E080E0219130E00A2E02C0369518
:1011A00027950A94E2F721703327042E01C0220FFD
:1011B0000A94EAF7822B4F5F5F4F4430510559F78D
:1011C0000895262F983070F4853060F4682F70E011
:1011D00085E0989F600D711D112440ED51E0822F34
:1011E0000E948D080895292F983068F4853058F4AE
:1011F00090E060ED71E035E0239F800D911D11249A
:101200000E94BA08089580E00895B0E0A0E0EBE005
:10121000F9E00C94F8257C010091E4011091E501BE
:101220008091E6019091E701082B192BCFE0D0E0E7
:10123000CC24C394D12CBC2EC6010C2E02C0880F26
:10124000991F0A94E2F780239123892B49F421976F
:1012500090F7B12C8B2DCDB7DEB7E9E00C941426B6
:10126000B7018C2F0E940110019789F3F3CFCF9320
:10127000DF93EC010E940509BE010E940110DF917D
:10128000CF9108951F93CF93DF93EB019091CF01FE
:10129000992339F0CB010E943709DF91CF911F913B
:1012A0000895882369F0CB010E940509182F682F43
:1012B000CE010E94E108BE01812F0E940110EDCFF6
:1012C000CB010E94F308182FF6CF1F93CF93DF9323
:1012D000C091E80117E08091E9018C1304C0DF910F
:1012E000CF911F910895D0E01C9FF0011D9FF00D3C
:1012F0001124E651FE4F2081318142815381648166
:10130000758186810E94ED072196C770E4CF2091F8
:1013100022023091230240912402509125026091D3
:10132000260270912702809128020E94ED070895FD
:10133000CF93DF9380912802807F09F04DC0809188
:101340002702882309F448C0E091E8015091E9019F
:10135000C0912302D0912202609124027091250253
:1013600047E05E17C9F18E2F90E0E49FF001112451
:10137000E651FE4F2481222391F1489FF001499FBD
:10138000F00D1124DF01A651BE4F11962C9111973B
:101390002C1325C02C912D1322C015962C91159736
:1013A00021111DC012962D913C91261B370B283C14
:1013B0003105A8F4809128028F7080618093280203
:1013C000E051FE4F80818F708061808382E292E0E5
:1013D0000E946F070E946509DF91CF910895FC017B
:1013E0003196E770BECF482F2091E8019091E90136
:1013F00057E0291302C080E0089530E0529FF001C9
:10140000539FF00D1124E651FE4F8181681306C0F1
:101410008081481303C085818111EECF2F5F3F4F3C
:101420002770E7CFA4E1B0E0E8E1FAE00C94F525FD
:101430008C0186E0F801DE011F9601900D928A95DD
:10144000E1F7F8018481E58092E2A92E92E0B92EBD
:101450009091260291111FC08823D1F0EE20A9F0AF
:10146000C8010E94D607F82E882379F087E0F8019A
:10147000D50101900D928A95E1F7C5010E94A00463
:101480000E9498090E9487095FC0C8010E946F07E7
:10149000FF24F39459C0C080D18082809380F09063
:1014A00027022091240230912502A401421B530BF4
:1014B000FF2009F4F9C0483C510508F0A7C0882373
:1014C00009F442C09091230280912802282F207FA6
:1014D00009F05CC09D1116C090912202C91212C081
:1014E000E1104EC08F708061809328020E948709AE
:1014F00082E292E00E946F0780912802F8018683C1
:10150000F12C22C0E1103CC06D2D8C2D0E94F309FE
:101510006D2D8C2D0E94F309E82E8111F1CFCF861D
:10152000D88A8F8598890E943709292F22952F7094
:10153000243078F49F702230A8F09923B9F0F80194
:101540009681907F99F4FE2C8F2D6496ECE00C949C
:1015500011262A5F2F70223068F0C8010E946F07A1
:10156000EF2CF1CF992311F0882369F3805E883046
:1015700050F3F3CF803F38F3815F833070F7E3CFD0
:1015800080912802816080932802BACF9D1113C0F8
:1015900090912202C9120FC0E1100DC08683C801CC
:1015A0000E946F0787E0F801A2E2B2E001900D927D
:1015B0008A95E1F767CFC8010E94D607882309F40E
:1015C00064CFEE2009F461CF80912802803288F048
:1015D0002091220230912302398728879B868A86B0
:1015E000909126029C871D868E87CE0108960E94C8
:1015F0006F0787E0F801A2E2B2E001900D928A95B0
:10160000E1F70E9498090E94870942CF9091280231
:10161000292F207FA1F4682D9A8A898AA6017A89C8
:101620009E2D0E94E30782E292E00E946F0787E00E
:10163000F50111928A95E9F70E94870961CF882305
:1016400009F482CF809123028D1110C08091220273
:10165000C8120CC0E1100AC09683C8010E946F072F
:1016600087E0F50111928A95E9F76ECFC8010E94D3
:10167000D607882309F409CFEE2009F406CF80911C
:101680002802803208F4B5CF209122023091230243
:101690003A8329839C828B82909126029D831E82AD
:1016A0008F83CE010196A3CF483C5105B8F588231E
:1016B00009F4EECEFE2CEE2009F4E7CE8091230251
:1016C0008D111EC080912202C8121AC0809128027A
:1016D00080FD0DC0982F907F51F08683903F09F4D4
:1016E0005ECF982F907F905F8F70892B57CF87E0C8
:1016F000F801A2E2B2E001900D928A95E1F724CFC1
:10170000C8010E94D607811174CF809128028160A0
:1017100080932802C8010E946F0716CF682D9A8A0D
:10172000898AA6017A899E2D0E94E30787E0F50148
:1017300011928A95E9F7A6CEAEE0B0E0E2EAFBE0CE
:101740000C94FE25288739874A875B876C877D87BD
:101750008E87CE0108960E94120A8823B1F06C850C
:10176000662341F0288539854A855B857D858E8590
:101770000E94ED0717E08091E8019091E90189133B
:101780003DC02E96E3E00C941A2687E0FE013896C1
:10179000DE01119601900D928A95E1F78C858823E0
:1017A00049F32091E90130E0C9010196877099273A
:1017B0004091E8014817190699F097E0929FD001EF
:1017C000939FB00D1124A651BE4FFE01319601909A
:1017D0000D929A95E1F78093E9010E946509CACFBD
:1017E0000E94B6071092E9011092E80187E0E2E258
:1017F000F2E0DF011D928A95E9F7BCCF819FC0011D
:10180000112486519E4F0E94120A882309F4B9CFF1
:10181000E091E8011E9FF0011124E651FE4F208166
:101820003181428153816481758186810E94ED07F7
:101830008091E80190E00196877099278093E801F4
:101840009ACF682F80910001909101010E94001EA3
:101850000895682F80910001909101010E94031E5C
:10186000089580910001909101010E94061E089543
:1018700080913102869586958695089580913102F2
:101880008770089590913102977081E009F480E0AB
:10189000089580913D02089590913D02892B809397
:1018A0003D020895809590913D02982390933D02CA
:1018B000089580933D02089510923D0208959091FD
:1018C0003C02892B80933C020895809590913C02C4
:1018D000982390933C02089510923C020895089535
:1018E0000E946F0C089590913202292F282331F025
:1018F00080958923809332020E94700C0895089588
:101900000E947F0C089590913302292F28232817D5
:1019100029F0982B909333020E94800C08959091A7
:101920003302292F282331F08095892380933302B5
:101930000E94800C089580913302882329F0109230
:10194000330280E00E94800C0895CF93DF93E091F2
:101950000001F091010180913D028083E09100013E
:10196000F0910101808190913C02892B80839091BC
:101970003302992381F0E0910001F091010180810F
:10198000892B808380910001909101010E94B81DF4
:1019900081110E949B0CC0910001D091010148E08F
:1019A00050E069E272E0CE010E943A26892B59F09C
:1019B00088E0FE01A9E2B2E001900D928A95E1F77C
:1019C000CE010E94551DDF91CF91089508950E9488
:1019D000E60C089590919B0292FF11C098E0899FB8
:1019E00090011124622B609331020E943F08809184
:1019F00031028695869586950E94E70C08950E948F
:101A00003F0808951092310280E00E94E70C08958B
:101A1000909131028095892380933102282F27707D
:101A200069F4891759F090919B0292FF07C086953F
:101A3000869586950E944F080E94020D0895909108
:101A40009B0292FB222720F9281769F080FB92F96C
:101A500090939B0280919A0290919B020E94670D45
:101A600082E00E94080D089580919B0282FB8827E6
:101A700080F991E089270E941F0D089581E00E945E
:101A80001F0D089580E00E941F0D08956FEF7FEFF6
:101A900090E080E00E948C26089590E080E00E9413
:101AA000582621E0863E9E4F09F020E0822F0895BF
:101AB00082E090E00E945026089583E090E00E942A
:101AC0005026089584E090E00E9458260895BC01B5
:101AD00084E090E00E948C260895AB01BC018FE069
:101AE00090E00E9480260895AB01BC0183E190E064
:101AF0000E948026089560E070E0CB010E94740D82
:101B0000089560E070E0CB010E946D0D0E947B0D96
:101B10000895A8E0B0E0EFE8FDE00C94FF2566EE44
:101B20007EEF90E080E00E948C2660E082E090E012
:101B30000E946E2660E083E090E00E946E26109284
:101B4000E7011092E60160E074E184E090E00E9419
:101B50008C2660E086E090E00E946E266FEF87E0C2
:101B600090E00E946E2640E050E0BA0188E090E0EC
:101B70000E94802660E084E290E00E946E2660E091
:101B800087E190E00E946E2660E08CE090E00E9489
:101B90006E2660E08DE090E00E946E2619821A8227
:101BA0001B821C821D821E821F82188648E050E024
:101BB00068E170E0CE0101960E945E2640E050E0B0
:101BC000BA0180E290E00E9480260E94810D289652
:101BD000E2E00C941B260E94890D08958EE090E0AF
:101BE0000E94502691E0811101C090E0892F089554
:101BF000682F8EE090E00E946E260895A6E0B0E087
:101C0000E4E0FEE00C94FD250E94BC1E8C01809156
:101C10003E0290913F028017910781F019821A824B
:101C20000E94BC1E682F49815A81792F80E090E084
:101C30000E94700410933F0200933E022696E4E057
:101C40000C9419260E94111160934C0270934D025E
:101C500080934E0290934F02609348027093490222
:101C600080934A0290934B020895089508950E942C
:101C7000360E089508950E943A0E089581E0089561
:101C80008BE291E10E94341D0E94350E0E94370EB6
:101C900008950E941B130895089508950E944C0E04
:101CA0000E944D0E08950E9457110E9444040E9404
:101CB000311808950E94B31E0E94EB100E94331346
:101CC0000E9448120E94530E0E94BB170E944313A9
:101CD0000E943B0E0895A6E0B0E0E1E7FEE00C9420
:101CE000F6250E943E0E81110CC00E94FE0D0E943E
:101CF0001B130E94BF160E9457042696EBE00C941B
:101D000012260E949C1280E4A82E82E0B82E750153
:101D100010E0F70101917F01812F0E947D111F5F6B
:101D2000183009F441C00817A1F38091500281FDD9
:101D30000E9483110E94490EC82E10E099249394AA
:101D4000812F0E947D11082FF50181915F010817F5
:101D500029F1F12CEE24E394D02ED8268D2D8E215E
:101D6000A9F0CC2099F0F9821A830E94BC1E9C83B2
:101D70008B839D8291E0802F8E2109F490E0498130
:101D80005A816B817C818D810E947004F394EE0CEA
:101D9000F5E0FF12E3CFF501319700831F5F1830A4
:101DA00079F60E94220EA3CF0813BFCF9ECF1F93B8
:101DB000CF93DF930E940610EC01C11580E5D80790
:101DC000F0F5C11580E4D80708F09CC0C03ED105ED
:101DD00020F5CD3CD10508F082C0C83AD10578F491
:101DE000C53AD10508F073C0C130D10519F120976B
:101DF00009F1C430D105F0F4D0E0C0E01BC0C33C11
:101E0000D105D0F7C85AD0E0CC0FDD1FC357DE4F45
:101E10000990D881C02DD4640DC0C11580E2D807C7
:101E200008F0D1C0C11581E0D80708F05AC0C83EFB
:101E3000D10510F7CE01DF91CF911F910895C036E3
:101E400082E5D80718F5C03482E5D80708F06BC0E2
:101E5000C03282E5D80708F05FC0C11582E5D80717
:101E600008F497C02C2F2695269580E2289F900194
:101E700011248C2F8370C1E0D0E002C0CC0FDD1F95
:101E80008A95E2F7C22BD32BDD68D4CFC03A82E526
:101E9000D80760F4C03882E5D80708F459C0CF717C
:101EA000D0E0DC2FCC27C46FD06AC4CFC03C82E521
:101EB000D80708F462C0C03E82E5D80708F09CCF7E
:101EC000DC2FCC27CC27DF71C06FD06AB3CFC55AC7
:101ED000D0E0CD53DE4FC881D0E0D064ABCFD06529
:101EE000A9CF8D2F0E94A810182FCE0199270E94EC
:101EF0000610C12FD0E0DC2FCC27CC27DF71C82BF8
:101F0000D92B98CFCE0199270E940610CC27DF70DD
:101F1000C82BD92BD06A8ECFCF71D0E0DC2FCC2745
:101F2000C16FD06A87CF2C2F26952695277080E227
:101F3000289F900111248C2F8370C1E0D0E002C053
:101F4000CC0FDD1F8A95E2F7C22BD32BDC6872CF52
:101F50002C2F26952695277080E2289F900111242A
:101F60008C2F8370C1E0D0E002C0CC0FDD1F8A95BA
:101F7000E2F7C22BD32BDA685DCF8C2F8F710E94D2
:101F8000A810C82FD0E0DC2FCC27CC27DF71D0627F
:101F900051CF8C2F8F710E94A81055E0D695C79510
:101FA0005A95E1F7CF70D0E0DC2FCC27282F30E016
:101FB00084FF05C044E0220F331F4A95E1F7C22B8E
:101FC000D32BD06937CF8D2F8F710E94A810182F77
:101FD000CE0199270E940610C12FD0E0DC2FCC271C
:101FE000CC27DF71C82BD92BD2CF462F783030F4D5
:101FF000653020F4672F0E94C202089590E080E0CF
:1020000008950E94F50F0E94D70E08958238910519
:10201000B9F1B0F48133910509F47DC048F48932F7
:10202000910509F46DC08A32910509F47BC00895C9
:102030008533910509F45FC08933910509F108954D
:10204000833E9105D9F138F4803E910529F1823E15
:10205000910579F10895863E9105D9F1873E910564
:1020600009F43EC0843E910541F520919B0221FF79
:1020700024C080919A0284FD19C087EE90E00895F3
:1020800020919A02237009F05AC020919B0223FFED
:1020900014C089E290E0089520919A0220FD38C092
:1020A00030919B0230FF09C024FF43C090E080E0E4
:1020B000089520919A0222FDF7CF089520919A0267
:1020C00022FD3AC030919B0230FD39C024FFF5CF8C
:1020D000EDCF20919A0223FFF0CF24FDE7CFCDCFA3
:1020E00020919A0223FD2EC030919B0231FFEECF4A
:1020F00084EE90E0089520919A0225FFDECFC9CFAB
:1021000020919A0225FD21C020919B0223FFD5CF6B
:1021100089E390E0D2CF20919A0226FFCECF8AE2C7
:1021200090E0089520919A0226FFC7CF81E390E0C6
:10213000089583EE90E0089582EE90E0089580EE99
:1021400090E0089586EE90E0089585E390E008958C
:1021500090919A0292FF06C0282F28712830F9F436
:10216000877F846093FF06C0282F28712831F1F4FF
:10217000877E846120919B0220FF06C0382F387132
:102180003830D9F4877F816021FF06C0282F28715D
:102190002831D1F4877E816194FD877E0895282FB0
:1021A00024712430F9F68B7F8860DCCF282F2471CE
:1021B000243101F78B7E8861DDCF382F31713130CA
:1021C00019F78E7F8860E0CF282F2171213121F708
:1021D0008E7E8861E1CF1092960210929702109243
:1021E0009802109299020895CF92DF92EF92FF9297
:1021F0006B017C010E941B1381110EC00E94C81E3E
:10220000C61AD70AE80AF90AC0929602D092970233
:10221000E0929802F0929902FF90EF90DF90CF90B9
:1022200008950F931F930E941B13882329F00E9487
:10223000C81E1F910F9108950E94C81E009196021A
:10224000109197022091980230919902600F711FAE
:10225000821F931FEECF80E008950E94460D0895DF
:10226000CF930E949C122FEF86E791E0215080408F
:102270009040E1F700C000000E949C120E941813D9
:10228000C4E08111C0E08C2F0E947D1190E002C05B
:1022900095958795CA95E2F780FF04C00E942D119D
:1022A0000E94231FCF9108950E94301108950E942B
:1022B0004D0D811102C00E94EB0D0E94580D8093BC
:1022C00050020E94620D90939B0280939A020E949A
:1022D00054110E945D0D90E00E9403088091E4017A
:1022E0009091E5010E942408089508950E947511B7
:1022F000089508950E9479110895E82FF0E0EB55B4
:10230000FD4F80810895089508950E9484110895D5
:10231000EF92FF921F93CF93DF9300D000D0CDB701
:10232000DEB70E941B13182F6091AD02882309F4B9
:1023300047C019821A821B821C82862F90E09E0160
:102340002F5F3F4F7901B9018B559D4F0E9451136B
:102350008823E9F080919C0290E044E050E0B701CE
:102360008B559D4F0E943A2621E020935102892BE4
:10237000C9F410E00E947A11812F0F900F900F90F6
:102380000F90DF91CF911F91FF90EF900895809172
:102390005102882371F384E0F70111928A95E9F7DD
:1023A00010925102E0919C02F0E0EB55FD4F8981C3
:1023B0009A81AB81BC8180839183A283B383DACF7E
:1023C00070E06B557D4F80919C0290E08B559D4F46
:1023D0000E94D8130E948511CFCF1F93CF93DF9314
:1023E00022E031E0C1E0D0E0D90150E040E08D9141
:1023F0008F3F91F0E82FE295EF70F0E011A18F7020
:10240000BE0101C0660F8A95EAF7962F9095912339
:1024100091A382A1862B82A34F5F5F4F4530510568
:1024200031F72B5F3F4F81E026313807E9F6DF9126
:10243000CF911F910895CF93DF93AC01A62FB0E009
:1024400085E0689FF0011124EE5FFE4F70E081E0AF
:1024500060E091919F3FD1F0C92FC295CF70D0E03D
:1024600028A130E09F7002C0359527959A95E2F734
:1024700020FD0CC0282F622B7F5F880F753049F735
:10248000A40FB51F6C93DF91CF91089520E0F3CF97
:10249000A4E1B0E0EEE4F2E10C94FF258091160196
:1024A000811126C084E1E0E4F1E0DE0111960190A3
:1024B0000D928A95E1F7FE013196A2E0B1E0CE01DE
:1024C000459620812C93218111962C93119722817E
:1024D00012962C931297238113962C931397248191
:1024E00014962C931497359615968E179F0749F7D7
:1024F0008091160194E0811190E09093AD0284E008
:10250000891B80939C020E94ED1188E0E5EAF2E0CD
:10251000DF01982F1D929A95E9F7EDE9F2E0DF01CE
:102520001D928A95E9F784E00E94DA120E947611E2
:102530006496E2E00C941B26A8E0B0E0E2EAF2E147
:102540000C94FC258E010F5F1F4F88E0F80111925B
:102550008A95E9F7F12C6F2DC8010E941B12F394A4
:10256000F4E0FF12F8CF48E050E0B8018DE992E0C6
:102570000E943A2621E0009709F420E0892B41F0DF
:1025800088E0F801ADE9B2E001900D928A95E1F79B
:102590006091AD0270E06B557D4F44E08DE992E0B3
:1025A0000E94DB12182F0E948811812B2896E5E0EB
:1025B0000C9418260895CF92DF92EF92FF920F931A
:1025C0001F93CF936C017B01042F222349F081E0FC
:1025D000809354020E94BC1E909353028093520237
:1025E000C0915402C1110AC0C0E08C2FCF911F913D
:1025F0000F91FF90EF90DF90CF900895809152025D
:10260000909153020E94D41E059770F310E0A80128
:10261000B601C7010E943A26892B41F0A801B601F4
:10262000C7010E94472610925402DFCFC0E0FBCFC3
:102630000E94EE0D089580915702811107C00E94FB
:10264000C825882351F081E08093570281E0909162
:102650005702913009F080E0089582E0809357029C
:102660000E94C325F3CF0E944D0D811102C00E942C
:10267000EB0D0E941813809316010E941B13811109
:102680000E94871308950E941B13811102C00E94AB
:102690008A13089581E0909158029A3008F080E002
:1026A00008950F931F93CF93DF93EC018B018091DB
:1026B00058028A30B8F4B801CE010E94D513C82F51
:1026C000811122C0809158028F3FB9F40E94BC1E34
:1026D00090935602809355028C2FDF91CF911F91DA
:1026E0000F91089580915502909156020E94D41E38
:1026F000843F914000F7C0E0EFCF8F5F8093580296
:102700008A3020F7C1E0E8CF10925802E5CF0E944E
:10271000D21B08950E94D51B0895B0E0A0E0E3E924
:10272000F3E10C94FA257901C82F880FDD0B4115D0
:102730005105A9F0FE0193E0EE0FFF1F9A95E1F716
:10274000E95EFE4F81819281875A9D4F208130E062
:102750004217530708F49A01A9010E944726CE01A7
:102760000E94BE1CD82E8823D1F001151105B9F0A6
:1027700083E0CC0FDD1F8A95E1F7FE01E95EFE4F95
:10278000438150E00417150708F4A801C95EDE4F25
:102790006C817D81675A7D4FC7010E9447268D2D30
:1027A000CDB7DEB7E7E00C9416260E94CF1408954B
:1027B0000E94E6140895A4E0B0E0E1EEF3E10C9489
:1027C000FD2560916E0270916F0280917002909170
:1027D00071020E94E31E11E06436710581059105C6
:1027E00018F10E9411116E5F7F4F8F4F9F4F6983C9
:1027F0007A838B839C8310E000E030E020E044E0AB
:1028000050E0BE016F5F7F4F82E00E948D13182F52
:10281000882351F00E94C81E60936E0270936F026D
:102820008093700290937102812F2496E4E00C94BF
:102830001926B0E0A0E0EFE1F4E10C94F7257C016B
:102840005B016A010E944A1301E010E0882311F045
:102850000AE010E0C1E0D0E0B501C701F60109953A
:10286000811104C021960C171D072CF4CDB7DEB7DB
:10287000EAE00C941326CC9F9001CD9F300D300DD3
:10288000112490E080E045E34A95F1F700000196BD
:1028900082179307C1F7E0CFA5E0B0E0E2E5F4E1ED
:1028A0000C94F7255B01E090C601F090C70101E0B0
:1028B00010E09E012B5F3F4F50E040E070E060E091
:1028C00080E00E948D13182F882309F44BC0670104
:1028D0008FEFC81AD80A60916A0270916B028091DA
:1028E0006C0290916D020E94E31E643671058105B1
:1028F000910580F104E010E09E012F5F3F4F50E012
:1029000040E070E060E081E00E948D13F82E64E00A
:1029100070E0C6010E94BC1711E09D81981310E081
:102920001F2159F10E94C81E60936A0270936B02C6
:1029300080936C0290936D0289819A81AB81BC81F6
:102940008093660290936702A0936802B093690235
:1029500011E013C064E070E0C6010E94BC179D81C5
:102960008913C8CFF70181819281A381B4818983C2
:102970009A83AB83BC831111DFCF80916602909163
:102980006702A0916802B0916902F501808391838A
:10299000A283B383812F2596EAE00C9413260F932C
:1029A0001F93CF93DF93EC018B014CE454E10E9421
:1029B0001914882331F04BED53E1B801CE010E9488
:1029C0001914DF91CF911F910F9108950F931F93C9
:1029D000CF93DF93C091C601D091C701CE0101967C
:1029E00024E0FB01DC0101900D922A95E1F764E0FF
:1029F00070E00E94BC1788836D817E818F819885ED
:102A0000009162021091630220916402309165028C
:102A1000601771078207930751F060936202709309
:102A2000630280936402909365020E94F410DF9128
:102A3000CF911F910F9108950E9499200E945A0EE4
:102A40000E94A62008950E94AB200E946B0E0E9457
:102A5000C52008950E94551E0E947F200E94400EAE
:102A60000E941C150E9423150E944E0EFBCF8091E0
:102A7000780280FF0DC06091340170E0660F771F0F
:102A80006038710570F56115710569F1862F08953B
:102A900081FF07C06091340184E0689FB001112478
:102AA000EFCF6091340182FD0AC0809177028823C4
:102AB000A9F02091330160913401821710F088E071
:102AC000ECCF869FC001112433E0880F991F3A95FF
:102AD000E1F7622F70E00E94D525D2CF68E070E068
:102AE000D5CF8FE7089581E008958091780280FF27
:102AF0000CC06091300170E075956795759567958C
:102B00006115710549F1862F089581FF06C0609116
:102B1000300170E075956795F3CF6091300182FDCB
:102B20000BC0909176029923A1F060912F018091C2
:102B30003001961738F0682F70E06038710500F3A7
:102B40008FE70895899FC001112470E00E94D52568
:102B5000F4CF61E070E0D7CF81E008958D3C31F48F
:102B60000E943715819580937C0208958E3C19F45C
:102B70000E943715F8CF8F3C31F40E9437158195AC
:102B800080937B020895803D19F40E943715F8CF99
:102B9000893D29F40E94751580937D0208958A3D30
:102BA00021F40E9475158195F7CF8B3D31F40E9479
:102BB0007515819580937E0208958C3D19F40E94CD
:102BC0007515F8CF9FE2980F983070F4815D990BDE
:102BD00021E030E001C0220F8A95EAF780917A0265
:102BE000822B80937A0208958D3D31F48091780292
:102BF00081608093780208958E3D21F4809178025F
:102C00008260F7CF8F3DB9F7809178028460F1CF71
:102C100040917B028D3C59F480917C0287FF0DC06E
:102C200010927C0241110BC01092770208C08E3CBA
:102C300081F480917C0218169CF3442381F08091EA
:102C40007D0290917E02892B09F05AC01092760283
:102C500008958F3C49F447FFF0CF10927B0280919A
:102C60007C028111ECCFE0CF803D19F41416ACF357
:102C7000E4CF90917D02893D29F41916F4F6109263
:102C80007D02DBCF8A3D19F497FFD7CFF8CF909123
:102C90007E028B3D29F497FFD0CF10927E02CDCFDC
:102CA0008C3D19F41916CCF3C8CF9FE2980F9830D9
:102CB00090F4815D990B21E030E0B90102C0660F0C
:102CC000771F8A95E2F7CB01809590917A0289234C
:102CD00080937A02B2CF8D3D31F4809178028E7F5D
:102CE00080937802AACF8E3D21F4809178028D7F67
:102CF000F7CF8F3D09F0A1CF809178028B7FF0CF85
:102D000008950E94BC1E9C0190917B0280917C02E0
:102D1000982B21F0309375022093740290917D02DC
:102D200080917E02982B21F03093730220937202DF
:102D300089E792E00E94601D089586E0E9E7F2E0ED
:102D4000DF011D928A95E9F71092770210927602C0
:102D5000109278020895FC01828181110EC0838156
:102D600081110BC08481811108C091E0858181119E
:102D700001C090E0892F8170089581E0FCCFA6E02A
:102D8000B0E0E5ECF6E10C94FE2586E0E9E7F2E040
:102D9000DE01119601900D928A95E1F710927B0267
:102DA00010927C0210927D0210927E028B819C8197
:102DB000892B89F080917402909175020E94D41E33
:102DC000AC01909177029923C9F180913501841764
:102DD000150608F440C08D819E81892B91F0809169
:102DE0007202909173020E94D41EAC0190917602FF
:102DF000992309F471C0809131018417150608F4F4
:102E000079C0BE016F5F7F4F89E792E00E940D1E7F
:102E1000811105C089E792E00E94AB1681110E94E2
:102E2000811686E0FE013196A9E7B2E001900D928D
:102E30008A95E1F72696E3E00C941A262091360154
:102E40008AE0289F900111242417350720F69F5F00
:102E50009093770202C09F3FD1F71B81112359F055
:102E60000E9437159FEF11160CF491E0899F802D79
:102E7000112480937B021C81112359F00E94371585
:102E80009FEF11160CF491E0899F802D11248093FF
:102E90007C0230917B02332309F49DCF20917C0288
:102EA000222309F498CF45EB3403C0011124992360
:102EB00059F090937B0245EB2403900111243323B6
:102EC00039F030937C0287CF81E080937B02F3CF8F
:102ED00081E080937C027FCF209132018AE0289F9D
:102EE000900111242417350708F08BCF9F5F909332
:102EF000760202C09F3FD1F71D81112359F00E9435
:102F000075159FEF11160CF491E0899F802D112407
:102F100080937D021E81112359F00E9475159FEF49
:102F200011160CF491E0899F802D112480937E026C
:102F300030917D02332309F464CF20917E02222355
:102F400009F45FCF45EB3403C0011124992359F0F4
:102F500090937D0245EB240390011124332339F033
:102F600030937E024ECF81E080937D02F3CF81E0EB
:102F700080937E0246CF0895FC01680F791F8FEF82
:102F800091E3E617F70709F408952191822728E0D5
:102F900030E087FF06C0880F892721503109C9F723
:102FA000F0CF880FFACFFB012581222341F097FF54
:102FB00006C09F77BC0190E080E00E941A1981E072
:102FC00008950F931F93CF93DF93EC018B01FB01C7
:102FD00085818823B1F00E94490C8272FE01E05382
:102FE000FC47E830F10568F4E055F94D0C94E9250B
:102FF000811104C081E003C08111FCCF8FEF0E94DA
:103000003A18B801CE010E94D317DF91CF911F91DA
:103010000F91089580E00E944218F3CF81E0FBCF2A
:1030200082E0F9CF83E0F7CF84E0F5CF85E0F3CFFE
:103030009091AF02923071F48A3050F490E009968A
:103040006AE070E00E94D525875A0E944B050895DA
:103050008650FBCF0E949B1A089508950E942D1858
:1030600008958CE090E00E9450268093AF020E9469
:103070002E18089508956091AF028CE090E00E94B0
:103080006E260895CF93C82F8093AF020E943B18FD
:103090008C2F0E942E18CF9108950E94521D80936C
:1030A000AE029091AF02913029F481FF03C089E311
:1030B0000E944B050E94490C8093B0020E945C0C58
:1030C0000E946C0C8091AF02823021F158F4882369
:1030D000C1F08130D1F08FE39CE90197F1F700C096
:1030E00000000895843051F18530A9F78BE191E01B
:1030F0000E94460385E290E00E94460388E290E049
:1031000006C082EE0E94B304E6CF88E193E00E94FD
:103110004603E1CF8091AE0280FD03C083E50E94AB
:103120004B0582EE0E94B3048FE39CE90197F1F70F
:1031300000C0000087E50E944B05CDCF86EE0E94BF
:103140004B0588E1F8CF8091AF02823011F148F44D
:10315000882381F0813091F08091B0020E94590C57
:1031600008958430F9F08530B9F788E290E00E9444
:103170004603F2CF82EE0E940005EECF8CE20E9461
:103180004B058091AE0281FFE7CF89E30E944B059A
:10319000E3CF82EE0E9400058091AE0280FDDCCF7D
:1031A00083E5F4CF88E2F2CF8F929F92AF92BF92E5
:1031B000EF92FF920F931F93CF93DF934B015C012C
:1031C000D091AF028CE1E82EF12C07E010E021E075
:1031D000D501C4010E2C04C0B695A7959795879587
:1031E0000A94D2F7C82FCF70222339F0D43051F48B
:1031F000CA3040F080E00E9418188C2F0E941818E6
:1032000020E005C0C111F9CF04301105B4F301501D
:10321000110984E0E81AF1080F3F1007C9F6DF91A1
:10322000CF911F910F91FF90EF90BF90AF909F9023
:103230008F900895CF92DF92EF92FF926B017C0105
:10324000C114D10481E1E806F104A0F5C114D10450
:1032500081E0E806F10420F08091AF02823051F164
:103260000E944D18C114D10481E0E806F10438F140
:103270008091AF02811123C081E0E81AF108C701F3
:10328000B6012AE096958795779567952A95D1F7A7
:1032900078528F4F9F4F0E94D41883E0D822EE249B
:1032A000FF24C701B60174528F4F9F4F0E94D4185C
:1032B0000E94A318FF90EF90DF90CF900895C70170
:1032C000B601F4CFCF93DF93EC01FB018581882316
:1032D00009F4D2C09E0130572332310508F0B2C044
:1032E0000E94620D90939B0280939A02FE01E1502E
:1032F000F047E232F10520F4E854F94D0C94E92549
:1033000080919A02816080939A0293C080919B027F
:10331000886080939B028DC080919A028260F3CF77
:1033200080919A028460EFCF80919A028860EBCFFF
:1033300080919B028160EDCF80919B028260E9CFFA
:1033400080919A028061DFCF80919A028062DBCF08
:1033500080919A028064D7CF0E94B60780919A022A
:103360008068D1CF80919A028C60CDCF80919B02F2
:103370008360CFCF80919A028E7FC5CF80919B02D0
:10338000877FC7CF80919A028D7FBDCF80919A02AF
:103390008B7FB9CF80919A02877FB5CF80919B02B6
:1033A0008E7FB7CF80919B028D7FB3CF80919A02A1
:1033B0008F7EA9CF80919A028F7DA5CF80919A02AE
:1033C0008F7BA1CF0E94B60780919A028F779BCF07
:1033D00080919A02837F97CF80919B028C7F99CFB7
:1033E00080919A0282FB992790F921E0922790FB25
:1033F00082F990FB83F987CF80919B02982F90955B
:1034000091708E7F892B90FB81F983CF90919A02E6
:10341000892F8F7B96FF806476CF0E94B6079091AC
:103420009A02892F97FB87F980586DCF81E00E941F
:10343000F80D80919A0290919B020E94670D0E9464
:10344000B60780E0DF91CF91089580E0F0CF9091B2
:103450009A02892F8F7E94FF806155CF90919A02B6
:10346000892F8E7F90FF81604ECF90919B02892F94
:10347000877F93FF88604DCF81E0E4CFB0E0A0E08C
:10348000E4E4FAE10C94FA25E82FF0E0E45DFC4F67
:10349000D490282F26952695269530E0F901E453FF
:1034A000FC4F0491877010E0082E02C01595079517
:1034B0000A94E2F701701127F901E454FC4FE490FB
:1034C000F12C082E02C0F594E7940A94E2F791E0FB
:1034D000E922FF24F901E455FC4FC491D0E002C079
:1034E000D595C7958A95E2F7C170DD2701151105BD
:1034F00019F081EE0E94B304E114F10419F086EE94
:103500000E94B3048D2D0E944B05E114F10419F0C3
:1035100086EE0E9400050115110519F081EE0E944A
:103520000005CD2B19F08CE20E944B05CDB7DEB71C
:10353000E7E00C941626982F9F709A50963020F052
:10354000805D0E943E1A0895895AFBCFCF93DF9386
:10355000EB0186319C4711F50E94490C9D8199230E
:1035600099F08A7A91E009F490E090937F028111BA
:1035700009C089E20E94210C0E94A50C80E0DF9125
:10358000CF91089585E3F6CF80917F02811104C029
:1035900089E20E94290CF0CF85E3FBCF81E0EFCFD9
:1035A0000F931F93CF93DF93C42FD22FFC018581FC
:1035B0008823C9F0409382020E94BC1E909381022E
:1035C0008093800280E28C0F883040F4C77081E0E5
:1035D00001C0880FCA95EAF70E945405DF91CF9188
:1035E0001F910F91089510918202141332C080919F
:1035F0008002909181020E94D41E883C910548F57A
:10360000C0E2CD0F1D17B9F080E2810F883040F481
:10361000177081E001C0880F1A95EAF70E945B05D8
:10362000C83048F481E09D2F977001C0880F9A95AB
:10363000EAF70E945405802F0E944B05C83070F6AF
:10364000D77081E001C0880FDA95EAF70E945B0528
:10365000C5CF80E28C0F883008F6C77081E001C0CA
:10366000880FCA95EAF7F2CF0F93DB0188519C4788
:1036700087309105A0F5FC01E652F94D0C94E9253F
:1036800006E221EE41EE6AE17CE7CD010E94D01A0C
:1036900080E00F91089507E225EE45EE6BE17CE7AF
:1036A000F4CF06E221EE40EE68E17CE7EECF07E2E0
:1036B00025EE44EE69E17CE7E8CF06E221EE42EE3A
:1036C0006CE17CE7E2CF07E225EE46EE6DE17CE7B8
:1036D000DCCF08E221E045EE6EE17CE7D6CF15961F
:1036E0008C91882319F010928202D3CF81E0D1CF40
:1036F0008EE14A9B02C08150E1F74A9BFECF0895BC
:103700005A9880E28A95F1F75A9A0895FC013BE0B5
:103710003A95F1F798E020E080E031E040E14A9509
:10372000F1F7880F4A9B02C08160232742E04A9547
:10373000F1F7000040E14A95F1F7915079F790E1F7
:103740009A95F1F799B132E03A95F1F7000040E12E
:103750004A95F1F792FB992790F992272081920FD1
:1037600090830895A1E0B0E0E8EBFBE10C94FB2529
:1037700019828C017C01E60EF11C0E151F0541F427
:1037800081E09981911180E02196E6E00C94172662
:103790000E94781BCE0101960E94861BF80181933E
:1037A0008F01EBCF529A5A9A089552985A9AEA9AF0
:1037B000E9E6F0E080818F7C808308956150770B8B
:1037C00091E001C0990F6A95EAF720E031E091118C
:1037D00008C0222391F05A9A80E28A95F1F75A980C
:1037E0000895492F482339F05A9A232740E24A95F1
:1037F000F1F79695ECCF5A98F9CF5A98EDCFFF9202
:103800000F931F93CF93DF93EC018C01060F111DD3
:10381000C017D10729F4CDB7DEB7E5E00C94182620
:10382000F9900E94801B68E08F2D0E94DE1BF0CF74
:103830001F920F920FB60F9211240F931F932F9385
:103840003F934F935F936F937F938F939F93AF9328
:10385000BF93EF93FF93CF93DF930F92CDB7DEB774
:1038600019820E94781BCE0101960E94861B082FA8
:10387000069506950695282F22952570902F957010
:10388000290F922F937026952695920F982797705F
:103890008981982B09F05CC0043008F059C080E1A0
:1038A0008A95F1F75A9A529A82E08A95F1F700C008
:1038B0005A9888E0089F80011124D801A95EBE4F64
:1038C0001696ED91FC9117973097A9F06091C6017B
:1038D0007091C70114962D913C911597260F371FB3
:1038E00011968D919C911297680F791F13964C91A8
:1038F00013978C910995F801E95EFE4F6381662369
:1039000051F02091C6013091C70184819581820FC9
:10391000931F0E94FF1B0E94801B80E18A95F1F794
:103920005A9852985A9A80E18A95F1F7F801E95E1F
:10393000FE4F6081662351F02091C6013091C7018E
:1039400081819281820F931F0E94B21B0E94781B7B
:103950000F90DF91CF91FF91EF91BF91AF919F9128
:103960008F917F916F915F914F913F912F911F9117
:103970000F910F900FBE0F901F9018950F931F93EC
:10398000CF93DF93EC0104970CF04CC0F894529A5B
:103990005A9885E08A95F1F700009C2F96959570CE
:1039A0008C2F8570980F892F83709695969523E0BC
:1039B000CC0FDD1F2A95E1F7980F8E01092B0E948D
:1039C000801B00C068E0802F0E94DE1B80E18A958A
:1039D000F1F752985A9A4A9B1EC087E090E04A99A4
:1039E0001CC0FE01E95EFE4F63816623F9F0209161
:1039F000C6013091C70184819581820F931F0E9477
:103A0000B21B811113C0529A5A9A7894DF91CF91C8
:103A10001F910F91089500C0DECF019729F4529AAB
:103A20005A9A789480E0F2CF00C0D9CF0E94781BD8
:103A300080E28A95F1F75A98529A80E18A95F1F7D7
:103A4000C95EDE4F6881662351F02091C601309136
:103A5000C70189819A81820F931F0E94FF1B0E94D8
:103A6000801B789481E0D2CF9093C9018093C801E4
:103A70000895909389028093880208950E941B13F1
:103A8000811103C0809183020895E0918802F09132
:103A90008902309729F00190F081E02D0995089571
:103AA00080E008950E943E1D0895E0918802F09103
:103AB0008902309721F00280F381E02D0995089565
:103AC000E0918802F0918902309739F022E0DC0120
:103AD0002C930480F581E02D09950895A3E0B0E0D2
:103AE000E4E7FDE10C94FF252091860230918702E6
:103AF00028173907A1F09093870280938602E091FE
:103B00008802F0918902309751F023E029839B834A
:103B10008A830680F781E02DCE01019609952396D0
:103B2000E2E00C941B26A3E0B0E0E9E9FDE10C948F
:103B3000FF25209184023091850228173907A1F0D2
:103B40009093850280938402E0918802F09189022B
:103B5000309751F024E029839B838A830680F78184
:103B6000E02DCE01019609952396E2E00C941B26E8
:103B70009C012E5F3F4FAC01485F5F4F80E02417F0
:103B8000350709F40895F90191919F019923B9F33B
:103B90008F5FF5CF662349F0FC013296089621919C
:103BA000261729F0E817F907D1F780E0089581E09A
:103BB00008959C01FC0132969FEF80E041914617E9
:103BC00051F09F3F19F4411101C0982F8F5F86304B
:103BD000A9F79F3F09F40895290F311D97FD3A95E4
:103BE000F90162830895FC0132960896219126130B
:103BF00003C0DF0111971C92E817F907B9F7089580
:103C00000E94D91D08950E94F31D0895029626E092
:103C1000FC0111922A95E9F7089546E050E00E94D0
:103C20003A2621E0892B09F420E0822F0895089597
:103C30000E94171E0895811106C081E080938A02B8
:103C40000E94181E089582E0F9CF83E080938A02D3
:103C50000E94181E08950E941B1E089581E0809303
:103C60008A020E94181E08950E942E1E089508952B
:103C700008950E94381E0895089508950E94371EE1
:103C80000895CF930E943C1E0E949C120E943D1EEC
:103C9000C0E08C2F0E947D11811105C0CF5FC8301C
:103CA000C1F7CF91089581E0FCCF85B7806885BFCB
:103CB00085B7806885BF08951F921FB61F92112493
:103CC0008F939F93AF93BF9380918B02811113C009
:103CD0008091B1029091B202A091B302B091B4026E
:103CE0004196A11DB11D8093B1029093B202A093A1
:103CF000B302B093B402BF91AF919F918F911F9087
:103D00001FBE1F9018958091B902843031F10E9436
:103D1000270410928B0288E190E020E40FB6F8941B
:103D2000A895809360000FBE2093600083B7817FC9
:103D3000846083BF83B7816083BF7894889583B79D
:103D40008E7F83BF0FB6F894A8958091600088613C
:103D500080936000109260000FBE08950E94B60725
:103D60000E942C04089582E084BD93E095BD9AEFF3
:103D700097BD80936E0008952FB7F8948091B1029B
:103D80009091B202A091B302B091B4022FBF0895F6
:103D90002FB7F8946091B1027091B2028091B30292
:103DA0009091B4022FBF08959C014FB7F894809171
:103DB000B1029091B202A091B302B091B4024FBF90
:103DC000821B930B0895CF92DF92EF92FF922FB751
:103DD000F894C090B102D090B202E090B302F0909B
:103DE000B4022FBFA7019601261B370B480B590BB6
:103DF000CA01B901FF90EF90DF90CF9008957894B9
:103E00001F921FB61F9211248F939F93AF93BF935E
:103E10008091B1029091B202A091B302B091B4022C
:103E20000196A11DB11D8093B1029093B202A0939F
:103E3000B302B093B402BF91AF919F918F911F9045
:103E40001FBE1F90189587E797E79093010880930E
:103E5000000888E19AE00FB6F894A8958093600076
:103E60000FBE90936000FFCF88E19AE00FB6F89400
:103E7000A895809360000FBE90936000FFCF809163
:103E8000940208959B01BA019091B9029430E9F42B
:103E90008F708093E9009FEF8091E800915085FD3D
:103EA00006C085ED8A95F1F700009111F5CF80915C
:103EB000E80085FF0AC050E040E0C9010E943C21B3
:103EC0008091E8008E778093E800089543E050E009
:103ED000BC0182E00E94421F089546E050E0BC0110
:103EE00082E00E94421F0895CF93DF93EC0148E0E7
:103EF00050E0BC0181E00E94421F88E0FE01ACE876
:103F0000B2E001900D928A95E1F7DF91CF9108958B
:103F10008091B802811109C00E94CC220E942923FD
:103F20008091E20084608093E20008951092B802CC
:103F300008950E942E1E08956091B50281E06111DE
:103F400001C080E00E94251E08959091B90281E091
:103F5000943009F080E06091B5020E942B1E089514
:103F600042E061EC81E00E94482242E261EC82E0A2
:103F70000E9448229091B90281E0943009F080E0DB
:103F80006091B5020E941B1E08958091BB02833090
:103F900009F461C030F48130D1F1823009F49EC05F
:103FA00008958A3009F48AC08B3009F46FC08930D3
:103FB00009F050C08091BA02813209F04BC0809163
:103FC000BE029091BF02029708F044C08091E800C1
:103FD000877F8093E8008091E80082FF37C090914E
:103FE000F3008091F200029731F48091F10081306A
:103FF00011F0863021F48091F10080939402809139
:10400000E8008B778093E8000E947C2223C0809197
:10401000BA02813AF9F48091E800877F8093E80042
:104020008091BE029091BF02892B61F468E08CE818
:1040300092E070E00E948B218091E8008B77809362
:10404000E800089560E090E080E0F3CF8091B9024D
:104050008111C1CF08958091BA02813AD9F7809138
:10406000BE029091BF02892BA9F78091E800877F5B
:104070008093E8008091E80080FFFCCF80913F01B1
:104080008093F1008091E8008E77BCCF8091BA02D6
:10409000813201F78091BE029091BF02892BD1F647
:1040A0008091E800877F8093E8000E947C228091C5
:1040B000BC0280933F010E94B60708958091BA0226
:1040C000813241F68091E800877F8093E8000E946A
:1040D0007C228091BD028093950208958091BA025E
:1040E000813A09F0B7CF8091E800877F8093E8009C
:1040F0008091E80080FFFCCF80919502C1CF84B70A
:10410000877F84BF0FB6F894A8958091600088617E
:1041100080936000109260000FBE80E890E00FB6C0
:10412000F89480936100909361000FBE0E94341E4A
:1041300008950E94CC220E942923E2EEF0E08081C3
:104140008460808378940E94A825089587E391E095
:104150000E94391D08958091B902853031F4809113
:10416000B902853019F00E94AE1E08950E94831E88
:104170008091B702882399F30E94411E882379F326
:104180000E9426210E94B607EACF08959A01409125
:10419000C0025091C1020E94CE200895492F552798
:1041A0004330510519F168F44130510509F444C018
:1041B0004230510509F445C090E080E050E040E015
:1041C00025C04132510549F142325105A9F780E439
:1041D00090E04EEC54E061157105C1F08BE790E082
:1041E00043E554E06130710589F0E6CF99278130CD
:1041F000910581F0009729F00297F1F6ECEDF3E0DC
:1042000002C0E2E0F4E0849190E0AF01F901518353
:1042100040830895E8EFF3E0F6CF89E090E048E1CD
:1042200054E06115710591F389E090E041E354E0B9
:104230006130710559F3C0CF82E190E041E454E070
:10424000E5CF8BE390E046E054E0E0CF80E189BD2C
:1042500082E189BD09B400FEFDCF8091D8008F7D39
:104260008093D8008091E00082608093E00080918C
:10427000E00081FDFCCF0895AF92BF92CF92DF9214
:10428000FF920F931F93CF93DF936C01EB018A0191
:104290000E949B22F82E811123C00115110539F0CF
:1042A000F80180819181C81BD90BC80ED91EB12C91
:1042B000A12C2097A9F08091E80085FD22C0809173
:1042C000E8008E778093E80001151105A1F0F80150
:1042D00080819181A80EB91EB182A08285E0F82E5E
:1042E0008F2DDF91CF911F910F91FF90DF90CF9095
:1042F000BF90AF9008950E949B228823D1F2F82EA0
:10430000EFCFF60181916F018093F1002197FFEFCC
:10431000AF1ABF0ACECFFC018091C0029091C102BA
:1043200086179707A0F06115710529F49091E800B0
:104330009E779093E80090E06115710551F491111A
:1043400008C08091E80082FF34C080E00895BC017D
:10435000F2CF8091B9028823C1F18530C1F18091FB
:10436000E80083FD30C08091E80082FDEACF8091B3
:10437000E80080FFE1CF8091F3002091F200382F18
:104380006115710519F02830310558F091E0283099
:10439000310509F090E02091E8002E772093E800A5
:1043A000CBCF81918093F100615071092F5F3F4F16
:1043B000E7CF8091B902882341F0853041F08091A8
:1043C000E80083FFBECF81E0089582E0089583E096
:1043D0000895FC018091C0029091C1028617970751
:1043E000A0F06115710529F48091E8008E77809323
:1043F000E80090E06115710551F4911108C08091B9
:10440000E80082FF35C080E00895BC01F2CF8091C2
:10441000B9028823C9F18530C9F18091E80083FD94
:1044200031C08091E80082FDEACF8091E80080FFF2
:10443000E1CF8091F3002091F200382F61157105D2
:1044400019F02830310558F091E02830310509F095
:1044500090E08091E8008E778093E800CBCF849144
:104460008093F1003196615071092F5F3F4FE6CF85
:104470008091B902882341F0853041F08091E800B5
:1044800083FFBDCF81E0089582E0089583E0089521
:10449000982F973028F08F708093E90081E008957D
:1044A0009093E900242F762F50E0981731F0709107
:1044B000EC002091ED005091F00021FD02C09F5FC3
:1044C000E8CF3091EB003E7F3093EB003091ED0070
:1044D0003D7F3093ED003091EB0031603093EB0085
:1044E0007093EC002093ED005093F0002091EE00CB
:1044F00027FDE5CF80E008958091BA0287FF13C0C1
:104500008091E80082FF06C08091E8008B7780935D
:10451000E80004C08091B9028111F2CF0895809122
:10452000B9028823D9F38091E80080FFF8CF809109
:10453000E8008E77ECCF2091E4003091E50095E61D
:10454000A9012091EC00822F817020FF06C080918C
:10455000E80080FF06C080E008952091E80022FD79
:104560001AC08091B902882389F0853089F0809142
:10457000EB0085FD0FC02091E4003091E50042176B
:104580005307F9F29150E1F684E0089582E008952E
:1045900083E0089581E008950E943B230E94432315
:1045A000E0EEF0E0808181608083E8EDF0E08081E2
:1045B0008F77808319BCA7EDB0E08C918E7F8C93B0
:1045C00080818F7E80831092B80208950F931F938D
:1045D000CF93DF930E943B230E944323C8EDD0E09A
:1045E00088818F77888388818068888388818F7DA0
:1045F000888319BC1092B9021092B5021092B702CA
:104600001092B60200EE10E0F80180818B7F80836B
:1046100088818160888342E060E080E00E944822D7
:10462000E1EEF0E080818E7F8083E2EEF0E0808139
:1046300081608083808188608083F80180818E7FA3
:104640008083888180618883DF91CF911F910F9152
:104650000895E8EDF0E080818F7E8083E7EDF0E063
:1046600080818160808384E082BF81E08093B80292
:104670000E94E6220895E8EDF0E080818E7F80833D
:104680001092E20008951092DA001092E10008956D
:104690001F920F920FB60F9211242F933F934F93B7
:1046A0005F936F937F938F939F93AF93BF93EF939A
:1046B000FF938091E10082FF0BC08091E20082FFB6
:1046C00007C08091E1008B7F8093E1000E94A725C5
:1046D0008091DA0080FF19C08091D80080FF15C05A
:1046E0008091DA008E7F8093DA008091D90080FF7C
:1046F00096C080E189BD82E189BD09B400FEFDCF8D
:1047000081E08093B9020E94881F8091E10080FFC0
:1047100019C08091E20080FF15C08091E2008E7F79
:104720008093E2008091E20080618093E2008091BA
:10473000D80080628093D80019BC85E08093B902CC
:104740000E949C1F8091E10084FF2BC08091E200B9
:1047500084FF27C080E189BD82E189BD89B5982F9A
:10476000917080FFFBCF8091D8008F7D8093D8001F
:104770008091E1008F7E8093E1008091E2008F7E46
:104780008093E2008091E20081608093E20080915A
:10479000B502882309F449C084E08093B9020E94DD
:1047A000A51F8091E10083FF29C08091E20083FF73
:1047B00025C08091E100877F8093E10082E08093B3
:1047C000B9021092B5028091E1008E7F8093E100E2
:1047D0008091E2008E7F8093E2008091E200806110
:1047E0008093E20042E060E080E00E9448228091F5
:1047F000F00088608093F0000E94991FFF91EF9174
:10480000BF91AF919F918F917F916F915F914F91E8
:104810003F912F910F900FBE0F901F90189519BCCC
:104820001092B9020E94961F70CF8091E30087FD1D
:1048300093E09093B902B3CF1F920F920FB60F92ED
:1048400011242F933F934F935F936F937F938F9395
:104850009F93AF93BF93CF93DF93EF93FF93D09149
:10486000E900DF708091EC00C82FC17080FDC0E8C6
:104870001092E9008091F000877F8093F000789497
:104880000E9460241092E9008091F000886080937B
:10489000F000CD2BCF70C093E900FF91EF91DF9135
:1048A000CF91BF91AF919F918F917F916F915F91C8
:1048B0004F913F912F910F900FBE0F901F90189521
:1048C000AAE2B0E0E6E6F4E20C94FE258AEB92E080
:1048D0002091F100FC012193CF01F2E0823C9F077F
:1048E000B9F70E94C51F8091E80083FF1EC1809127
:1048F000BA029091BB029A3008F017C1E92FF0E09C
:10490000EF51F94D0C94E925803899F0823809F07F
:104910000CC18091BE028F70873008F006C1809371
:10492000E9008091EB0085FB882780F91092E9006F
:1049300006C08091B6029091B70291118260909169
:10494000E800977F9093E8008093F1001092F100C7
:104950008091E8008E77E5C0882309F4D3C08230C7
:1049600009F0E3C08091BC028111D6C08091BE02E3
:104970008F702FEF280F263008F0D7C08093E90002
:104980002091EB0020FFC8C0933031F48091EB0000
:1049900080628093EB00C0C09091EB009061909397
:1049A000EB0021E030E001C0220F8A95EAF7209366
:1049B000EA001092EA008091EB008860EACF811152
:1049C000B4C01091BC021F778091E3008078812BE6
:1049D0008093E3008091E800877F8093E8000E9445
:1049E0007C228091E80080FFFCCF8091E30080680A
:1049F0008093E30082E0111183E08093B90295C0B7
:104A00008058823008F091C08091BC029091BD0224
:104A10008C3D23E09207A1F583E08A838AE28983B3
:104A20004FB7F894DE01139620E03EE051E2E32F09
:104A3000F0E050935700E49120FF03C0E295EF703F
:104A40003F5FEF708E2F90E0EA30C0F0C7968D93F5
:104A50009D932F5F243159F74FBF8091E800877FE6
:104A60008093E8006AE270E0CE0101960E948B21FB
:104A70008091E8008B778093E80057C0C096E7CF1D
:104A80006091BE027091BF02AE014F5F5F4F0E9406
:104A9000C620BC01892B09F448C09091E800977F9B
:104AA0009093E80089819A810E94E921E1CF8038C2
:104AB000E1F58091E800877F8093E8008091B5025E
:104AC0008093F10045CF811130C09091BC029230AB
:104AD00060F58091E800877F8093E8009093B502AD
:104AE0000E947C228091B502882311F084E005C0E9
:104AF0008091E30087FDFACF81E08093B9020E94A4
:104B0000B01F13C08091BC02813079F481E09330F2
:104B100009F080E08093B7021092E9008091E800EC
:104B2000877F8093E8000E947C228091E80083FFC9
:104B30000AC08091E800877F8093E8008091EB00B5
:104B400080628093EB00AA96E3E00C941A26089505
:104B5000CF938091B9028823A1F0C091E900CF7072
:104B60009091EC00892F817090FD80E8C82B109205
:104B7000E9008091E80083FD0E946024CF70C0931B
:104B8000E900CF9108950E94CC221092B9020895B5
:104B9000E8EDF0E08081806180838AE18A95F1F719
:104BA00000C08091D9008170089597FB072E16F4FC
:104BB000009407D077FD09D00E94262607FC05D077
:104BC0003EF4909581959F4F0895709561957F4F24
:104BD0000895EE0FFF1F0590F491E02D09942F9298
:104BE0003F924F925F926F927F928F929F92AF927D
:104BF000BF92CF92DF92EF92FF920F931F93CF93CA
:104C0000DF93CDB7DEB7CA1BDB0B0FB6F894DEBF60
:104C10000FBECDBF09942A88398848885F846E8486
:104C20007D848C849B84AA84B984C884DF80EE80D0
:104C3000FD800C811B81AA81B981CE0FD11D0FB6D9
:104C4000F894DEBF0FBECDBFED010895AA1BBB1BBC
:104C500051E107C0AA1FBB1FA617B70710F0A61B7C
:104C6000B70B881F991F5A95A9F780959095BC019D
:104C7000CD010895FB01DC0104C08D9101908019E4
:104C800021F441505040C8F7881B990B0895FB014F
:104C9000DC0102C001900D9241505040D8F70895B8
:104CA000F999FECF92BD81BDF89A992780B50895F4
:104CB000A8E1B0E042E050E00C949426DC01A40F9F
:104CC000B51F4150504048F0CB01840F951F2E91E5
:104CD0000E946F2641505040D0F70895262FF99931
:104CE000FECF92BD81BDF89A019700B4021639F04B
:104CF0001FBA20BD0FB6F894FA9AF99A0FBE08951C
:104D00000396272F0E946F260E946E26252F0E9451
:104D10006F26242F0C946F260196272F0E946F2652
:104D20000C946E26DC01CB01FC01F999FECF06C084
:104D3000F2BDE1BDF89A319600B40D924150504059
:104D4000B8F70895F894FFCFA105A105F105F10585
:104D500056067206D005D0057706E806F706F70670
:104D6000F817FC170A180E1810181218141816182D
:104D7000BA192E1AC2198C199019C6199419CA1980
:104D8000D619A019271AA419DA19A819DE19061AB2
:104D9000AC19E2190D1AB219E819F0199819CE19BF
:104DA0009C19D219B619EC19FC19161A251A86196C
:104DB000BE19351A511B571B401B4B1B5D1B631B38
:104DC000691B8424AC249525AC249525DF2400257B
:064DD0009525572563251F
:104DD6003402C6F7F6F5F431333236939190946681
:104DE600973435FFFFFF01000000010000000000BE
:104DF6000000040100000004050000000000002877
:104E06000850011E0A14013F1F741F6D1F661F0103
:104E1600F4F5F6F7C69336323331976694909135AA
:104E260034FFFFFFE200E900EA00B500B600B70074
:104E3600CD008301CC008A01920194012102230254
:104E460024022502260227022A02B300B4006F00BC
:104E560070009F01CB019F02A002818283E200E9DC
:104E660000EA00B500B600B700CD008301CC008A89
:104E7600019201940121022302240225022602271F
:104E8600022A02B300B4006F0070009F01CB019F9D
:084E960002A00281828359028F
:00000001FF
